{
  "address": "0x0f448e3B5E20eC46a5D7363dE95245d76cA52723",
  "abi": [
    {
      "anonymous": false,
      "inputs": [
        {
          "indexed": false,
          "internalType": "address",
          "name": "applicant",
          "type": "address"
        },
        {
          "indexed": false,
          "internalType": "uint256",
          "name": "amount",
          "type": "uint256"
        }
      ],
      "name": "FundsDisbursed",
      "type": "event"
    },
    {
      "anonymous": false,
      "inputs": [
        {
          "indexed": false,
          "internalType": "address",
          "name": "proposer",
          "type": "address"
        },
        {
          "indexed": false,
          "internalType": "address",
          "name": "applicant",
          "type": "address"
        },
        {
          "indexed": false,
          "internalType": "uint256",
          "name": "amount",
          "type": "uint256"
        },
        {
          "indexed": false,
          "internalType": "uint256",
          "name": "length",
          "type": "uint256"
        }
      ],
      "name": "NewProposal",
      "type": "event"
    },
    {
      "anonymous": false,
      "inputs": [
        {
          "indexed": true,
          "internalType": "address",
          "name": "previousOwner",
          "type": "address"
        },
        {
          "indexed": true,
          "internalType": "address",
          "name": "newOwner",
          "type": "address"
        }
      ],
      "name": "OwnershipTransferred",
      "type": "event"
    },
    {
      "inputs": [
        {
          "internalType": "address",
          "name": "member",
          "type": "address"
        }
      ],
      "name": "canSubmitProposal",
      "outputs": [
        {
          "internalType": "bool",
          "name": "",
          "type": "bool"
        }
      ],
      "stateMutability": "view",
      "type": "function"
    },
    {
      "inputs": [
        {
          "internalType": "uint256",
          "name": "index",
          "type": "uint256"
        }
      ],
      "name": "getProposal",
      "outputs": [
        {
          "internalType": "address",
          "name": "proposer",
          "type": "address"
        },
        {
          "internalType": "address",
          "name": "applicant",
          "type": "address"
        },
        {
          "internalType": "string",
          "name": "text",
          "type": "string"
        },
        {
          "internalType": "uint256",
          "name": "amount",
          "type": "uint256"
        },
        {
          "internalType": "uint256",
          "name": "yesVotes",
          "type": "uint256"
        },
        {
          "internalType": "uint256",
          "name": "noVotes",
          "type": "uint256"
        },
        {
          "internalType": "bool",
          "name": "disbursed",
          "type": "bool"
        }
      ],
      "stateMutability": "view",
      "type": "function"
    },
    {
      "inputs": [],
      "name": "happyToken",
      "outputs": [
        {
          "internalType": "contract HappyToken",
          "name": "",
          "type": "address"
        }
      ],
      "stateMutability": "view",
      "type": "function"
    },
    {
      "inputs": [
        {
          "internalType": "uint256",
          "name": "_price",
          "type": "uint256"
        },
        {
          "internalType": "uint256",
          "name": "_minTokensToJoin",
          "type": "uint256"
        }
      ],
      "name": "initialize",
      "outputs": [],
      "stateMutability": "nonpayable",
      "type": "function"
    },
    {
      "inputs": [
        {
          "internalType": "address",
          "name": "member",
          "type": "address"
        }
      ],
      "name": "isDaoMember",
      "outputs": [
        {
          "internalType": "bool",
          "name": "",
          "type": "bool"
        }
      ],
      "stateMutability": "view",
      "type": "function"
    },
    {
      "inputs": [],
      "name": "join",
      "outputs": [],
      "stateMutability": "payable",
      "type": "function"
    },
    {
      "inputs": [],
      "name": "minTokensToJoin",
      "outputs": [
        {
          "internalType": "uint256",
          "name": "",
          "type": "uint256"
        }
      ],
      "stateMutability": "view",
      "type": "function"
    },
    {
      "inputs": [],
      "name": "owner",
      "outputs": [
        {
          "internalType": "address",
          "name": "",
          "type": "address"
        }
      ],
      "stateMutability": "view",
      "type": "function"
    },
    {
      "inputs": [
        {
          "internalType": "uint256",
          "name": "submissionTime",
          "type": "uint256"
        }
      ],
      "name": "proposalHasPassedMinDuration",
      "outputs": [
        {
          "internalType": "bool",
          "name": "",
          "type": "bool"
        }
      ],
      "stateMutability": "view",
      "type": "function"
    },
    {
      "inputs": [
        {
          "internalType": "uint256",
          "name": "yesVoteCount",
          "type": "uint256"
        },
        {
          "internalType": "uint256",
          "name": "noVoteCount",
          "type": "uint256"
        }
      ],
      "name": "proposalHasRequiredYesVotes",
      "outputs": [
        {
          "internalType": "bool",
          "name": "",
          "type": "bool"
        }
      ],
      "stateMutability": "view",
      "type": "function"
    },
    {
      "inputs": [
        {
          "internalType": "uint256",
          "name": "",
          "type": "uint256"
        }
      ],
      "name": "proposalList",
      "outputs": [
        {
          "internalType": "address",
          "name": "proposer",
          "type": "address"
        },
        {
          "internalType": "address payable",
          "name": "applicant",
          "type": "address"
        },
        {
          "internalType": "string",
          "name": "text",
          "type": "string"
        },
        {
          "internalType": "uint256",
          "name": "amount",
          "type": "uint256"
        },
        {
          "internalType": "uint256",
          "name": "yesVotes",
          "type": "uint256"
        },
        {
          "internalType": "uint256",
          "name": "noVotes",
          "type": "uint256"
        },
        {
          "internalType": "uint256",
          "name": "submissionTime",
          "type": "uint256"
        },
        {
          "internalType": "bool",
          "name": "disbursed",
          "type": "bool"
        }
      ],
      "stateMutability": "view",
      "type": "function"
    },
    {
      "inputs": [
        {
          "internalType": "uint256",
          "name": "proposalId",
          "type": "uint256"
        }
      ],
      "name": "releaseFund",
      "outputs": [],
      "stateMutability": "nonpayable",
      "type": "function"
    },
    {
      "inputs": [],
      "name": "renounceOwnership",
      "outputs": [],
      "stateMutability": "nonpayable",
      "type": "function"
    },
    {
      "inputs": [
        {
          "internalType": "string",
          "name": "_proposalText",
          "type": "string"
        },
        {
          "internalType": "address payable",
          "name": "_applicant",
          "type": "address"
        },
        {
          "internalType": "uint256",
          "name": "_amount",
          "type": "uint256"
        }
      ],
      "name": "submitProposal",
      "outputs": [],
      "stateMutability": "nonpayable",
      "type": "function"
    },
    {
      "inputs": [],
      "name": "tokenPrice",
      "outputs": [
        {
          "internalType": "uint256",
          "name": "",
          "type": "uint256"
        }
      ],
      "stateMutability": "view",
      "type": "function"
    },
    {
      "inputs": [],
      "name": "totalProposals",
      "outputs": [
        {
          "internalType": "uint256",
          "name": "",
          "type": "uint256"
        }
      ],
      "stateMutability": "view",
      "type": "function"
    },
    {
      "inputs": [
        {
          "internalType": "address",
          "name": "newOwner",
          "type": "address"
        }
      ],
      "name": "transferOwnership",
      "outputs": [],
      "stateMutability": "nonpayable",
      "type": "function"
    },
    {
      "inputs": [
        {
          "internalType": "uint256",
          "name": "proposalId",
          "type": "uint256"
        },
        {
          "internalType": "uint8",
          "name": "vote",
          "type": "uint8"
        }
      ],
      "name": "voteForProposal",
      "outputs": [],
      "stateMutability": "nonpayable",
      "type": "function"
    }
  ],
  "solcInputHash": "43d94551e67bef60c8bcf5090308716c",
  "bytecode": "0x608060405234801561001057600080fd5b50613afa806100206000396000f3fe608060405260043610620001465760003560e01c80638da5cb5b11620000b5578063b688a363116200007f578063c7f758a81162000061578063c7f758a8146200035b578063e4a301161462000395578063f2fde38b14620003ba5762000146565b8063b688a3631462000316578063c6311e3f14620003205762000146565b80638da5cb5b146200029c57806397d2247714620002b4578063a78d80fc14620002d9578063ace2b7ec14620002f15762000146565b80636a2b5a6a11620001155780637ff9b59611620000f75780637ff9b596146200023a57806380d47c13146200025257806383b2244114620002775762000146565b80636a2b5a6a14620001fb578063715018a614620002205762000146565b8063066eaa63146200014b5780631c67211d146200017b5780634f619ca014620001af5780635e45060014620001d4575b600080fd5b3480156200015857600080fd5b5062000163620003df565b60405162000172919062001a99565b60405180910390f35b3480156200018857600080fd5b50620001a06200019a3660046200153c565b620003e5565b60405162000172919062001804565b348015620001bc57600080fd5b50620001a0620001ce3660046200153c565b6200047a565b348015620001e157600080fd5b50620001ec620004bf565b604051620001729190620016fb565b3480156200020857600080fd5b50620001a06200021a36600462001655565b620004ce565b3480156200022d57600080fd5b50620002386200058b565b005b3480156200024757600080fd5b506200016362000624565b3480156200025f57600080fd5b5062000238620002713660046200155b565b6200062a565b3480156200028457600080fd5b50620002386200029636600462001677565b6200079e565b348015620002a957600080fd5b50620001ec62000a6c565b348015620002c157600080fd5b5062000238620002d336600462001623565b62000a7b565b348015620002e657600080fd5b506200016362000bf0565b348015620002fe57600080fd5b50620001a06200031036600462001623565b62000bf6565b6200023862000c0d565b3480156200032d57600080fd5b50620003456200033f36600462001623565b62000dc3565b6040516200017298979695949392919062001728565b3480156200036857600080fd5b50620003806200037a36600462001623565b62000eba565b604051620001729796959493929190620017ae565b348015620003a257600080fd5b5062000238620003b436600462001655565b62000fe1565b348015620003c757600080fd5b5062000238620003d93660046200153c565b620010bd565b60675481565b6067546065546040516370a0823160e01b8152600092916001600160a01b0316906370a08231906200041c908690600401620016fb565b60206040518083038186803b1580156200043557600080fd5b505afa1580156200044a573d6000803e3d6000fd5b505050506040513d601f19601f820116820180604052508101906200047091906200163c565b101590505b919050565b600060675460036200048d919062001ade565b6065546040516370a0823160e01b81526001600160a01b03909116906370a08231906200041c908690600401620016fb565b6065546001600160a01b031681565b60008183118015620005845750606554604080517f18160ddd00000000000000000000000000000000000000000000000000000000815290516003926001600160a01b0316916318160ddd916004808301926020929190829003018186803b1580156200053a57600080fd5b505afa1580156200054f573d6000803e3d6000fd5b505050506040513d601f19601f820116820180604052508101906200057591906200163c565b62000581919062001abd565b83115b9392505050565b6200059562001188565b6001600160a01b0316620005a862000a6c565b6001600160a01b031614620005da5760405162461bcd60e51b8152600401620005d190620019bf565b60405180910390fd5b6033546040516000916001600160a01b0316907f8be0079c531659141344cd1fd0a4f28419497f9722a3daafe3b4186f6b6457e0908390a3603380546001600160a01b0319169055565b60665481565b62000635336200047a565b620006545760405162461bcd60e51b8152600401620005d19062001a62565b606880546001810182556000919091526009027fa2153420d844928b4421650203c77babc8b33d7f2e7b450e2966db0c22097753810180546001600160a01b0319908116331782557fa2153420d844928b4421650203c77babc8b33d7f2e7b450e2966db0c22097754830180546001600160a01b0387169216919091179055845190916200070c917fa2153420d844928b4421650203c77babc8b33d7f2e7b450e2966db0c220977559091019060208701906200147b565b5060038101829055600060048201819055600582015542600782015560088101805460ff1916905580546001808301546068547f8c90a8ee3c17fdf62b14bc1b1a74b1af0a96aca2f5aa83c58db62da1ead91b0b936001600160a01b039081169392169186916200077e919062001b00565b60405162000790949392919062001785565b60405180910390a150505050565b620007a933620003e5565b620007c85760405162461bcd60e51b8152600401620005d19062001a62565b60038160ff1610620007ee5760405162461bcd60e51b8152600401620005d19062001951565b6000606883815481106200081257634e487b7160e01b600052603260045260246000fd5b906000526020600020906009020190508160ff1660028111156200084657634e487b7160e01b600052602160045260246000fd5b3360009081526006830160205260409020805460ff191660018360028111156200088057634e487b7160e01b600052602160045260246000fd5b021790555060018260ff166002811115620008ab57634e487b7160e01b600052602160045260246000fd5b6002811115620008cb57634e487b7160e01b600052602160045260246000fd5b141562000979576065546040516370a0823160e01b81526001600160a01b03909116906370a082319062000904903390600401620016fb565b60206040518083038186803b1580156200091d57600080fd5b505afa15801562000932573d6000803e3d6000fd5b505050506040513d601f19601f820116820180604052508101906200095891906200163c565b8160040160008282546200096d919062001aa2565b9091555062000a679050565b60028260ff1660028111156200099f57634e487b7160e01b600052602160045260246000fd5b6002811115620009bf57634e487b7160e01b600052602160045260246000fd5b141562000a67576065546040516370a0823160e01b81526001600160a01b03909116906370a0823190620009f8903390600401620016fb565b60206040518083038186803b15801562000a1157600080fd5b505afa15801562000a26573d6000803e3d6000fd5b505050506040513d601f19601f8201168201806040525081019062000a4c91906200163c565b81600501600082825462000a61919062001aa2565b90915550505b505050565b6033546001600160a01b031690565b60006068828154811062000a9f57634e487b7160e01b600052603260045260246000fd5b60009182526020909120600990910201600881015490915060ff161562000ac557600080fd5b62000ad981600401548260050154620004ce565b62000af85760405162461bcd60e51b8152600401620005d19062001a2b565b62000b07816007015462000bf6565b62000b265760405162461bcd60e51b8152600401620005d190620019f4565b8060030154471162000b4c5760405162461bcd60e51b8152600401620005d190620018bd565b600181015460038201546040516001600160a01b039092169181156108fc0291906000818181858888f1935050505015801562000b8d573d6000803e3d6000fd5b5060088101805460ff1916600190811790915581015460038201546040517f782e29f84677015232f6d7f6802ffa1526db4d9800d3bdc9516a111f240e80869262000be4926001600160a01b03909116916200170f565b60405180910390a15050565b60685490565b6000600a62000c06834262001b00565b1192915050565b62000c3260405180606001604052806021815260200162003aa460219139336200118c565b60006066543462000c44919062001abd565b6067546065546040516370a0823160e01b815292935090916001600160a01b03909116906370a082319062000c7e903390600401620016fb565b60206040518083038186803b15801562000c9757600080fd5b505afa15801562000cac573d6000803e3d6000fd5b505050506040513d601f19601f8201168201806040525081019062000cd291906200163c565b62000cde908362001aa2565b1162000cfe5760405162461bcd60e51b8152600401620005d19062001988565b62000d3f6040518060400160405280601181526020017f4d696e74696e6720257320746f6b656e730000000000000000000000000000008152508262001207565b6065546040517f40c10f190000000000000000000000000000000000000000000000000000000081526001600160a01b03909116906340c10f199062000d8c90339085906004016200170f565b600060405180830381600087803b15801562000da757600080fd5b505af115801562000dbc573d6000803e3d6000fd5b5050505050565b6068818154811062000dd457600080fd5b60009182526020909120600990910201805460018201546002830180546001600160a01b03938416955092909116929162000e0f9062001b1a565b80601f016020809104026020016040519081016040528092919081815260200182805462000e3d9062001b1a565b801562000e8e5780601f1062000e625761010080835404028352916020019162000e8e565b820191906000526020600020905b81548152906001019060200180831162000e7057829003601f168201915b505050600384015460048501546005860154600787015460089097015495969295919450925060ff1688565b600080606060008060008060006068898154811062000ee957634e487b7160e01b600052603260045260246000fd5b600091825260209091206009909102018054600182015460038301546004840154600585015460088601546002870180549798506001600160a01b0396871697969095169560ff90911690859062000f419062001b1a565b80601f016020809104026020016040519081016040528092919081815260200182805462000f6f9062001b1a565b801562000fc05780601f1062000f945761010080835404028352916020019162000fc0565b820191906000526020600020905b81548152906001019060200180831162000fa257829003601f168201915b50505050509450975097509750975097509750975050919395979092949650565b600054610100900460ff168062000ffb575060005460ff16155b6200101a5760405162461bcd60e51b8152600401620005d190620018f4565b600054610100900460ff1615801562001046576000805460ff1961ff0019909116610100171660011790555b60405162001054906200150a565b604051809103906000f08015801562001071573d6000803e3d6000fd5b50606580546001600160a01b0319166001600160a01b039290921691909117905560668390556067829055620010a66200127e565b801562000a67576000805461ff0019169055505050565b620010c762001188565b6001600160a01b0316620010da62000a6c565b6001600160a01b031614620011035760405162461bcd60e51b8152600401620005d190620019bf565b6001600160a01b0381166200112c5760405162461bcd60e51b8152600401620005d19062001860565b6033546040516001600160a01b038084169216907f8be0079c531659141344cd1fd0a4f28419497f9722a3daafe3b4186f6b6457e090600090a3603380546001600160a01b0319166001600160a01b0392909216919091179055565b3390565b620012038282604051602401620011a59291906200180f565b60408051601f198184030181529190526020810180517bffffffffffffffffffffffffffffffffffffffffffffffffffffffff167f319af333000000000000000000000000000000000000000000000000000000001790526200130d565b5050565b620012038282604051602401620012209291906200183c565b60408051601f198184030181529190526020810180517bffffffffffffffffffffffffffffffffffffffffffffffffffffffff167f9710a9d0000000000000000000000000000000000000000000000000000000001790526200130d565b600054610100900460ff168062001298575060005460ff16155b620012b75760405162461bcd60e51b8152600401620005d190620018f4565b600054610100900460ff16158015620012e3576000805460ff1961ff0019909116610100171660011790555b620012ed6200132e565b620012f7620013a7565b80156200130a576000805461ff00191690555b50565b80516a636f6e736f6c652e6c6f67602083016000808483855afa5050505050565b600054610100900460ff168062001348575060005460ff16155b620013675760405162461bcd60e51b8152600401620005d190620018f4565b600054610100900460ff16158015620012f7576000805460ff1961ff00199091166101001716600117905580156200130a576000805461ff001916905550565b600054610100900460ff1680620013c1575060005460ff16155b620013e05760405162461bcd60e51b8152600401620005d190620018f4565b600054610100900460ff161580156200140c576000805460ff1961ff0019909116610100171660011790555b60006200141862001188565b603380546001600160a01b0319166001600160a01b038316908117909155604051919250906000907f8be0079c531659141344cd1fd0a4f28419497f9722a3daafe3b4186f6b6457e0908290a35080156200130a576000805461ff001916905550565b828054620014899062001b1a565b90600052602060002090601f016020900481019282620014ad5760008555620014f8565b82601f10620014c857805160ff1916838001178555620014f8565b82800160010185558215620014f8579182015b82811115620014f8578251825591602001919060010190620014db565b506200150692915062001518565b5090565b611f0a8062001b9a83390190565b5b8082111562001506576000815560010162001519565b8035620004758162001b83565b6000602082840312156200154e578081fd5b8135620005848162001b83565b60008060006060848603121562001570578182fd5b833567ffffffffffffffff8082111562001588578384fd5b818601915086601f8301126200159c578384fd5b8135602082821115620015b357620015b362001b6d565b604051601f8301601f1916810182018481118282101715620015d957620015d962001b6d565b60405282815284830182018a1015620015f0578687fd5b8282860183830137808301820187905296506200160f8882016200152f565b955050505050604084013590509250925092565b60006020828403121562001635578081fd5b5035919050565b6000602082840312156200164e578081fd5b5051919050565b6000806040838503121562001668578182fd5b50508035926020909101359150565b600080604083850312156200168a578182fd5b82359150602083013560ff81168114620016a2578182fd5b809150509250929050565b60008151808452815b81811015620016d457602081850181015186830182015201620016b6565b81811115620016e65782602083870101525b50601f01601f19169290920160200192915050565b6001600160a01b0391909116815260200190565b6001600160a01b03929092168252602082015260400190565b60006101006001600160a01b03808c168452808b16602085015250806040840152620017578184018a620016ad565b60608401989098525050608081019490945260a084019290925260c0830152151560e0909101529392505050565b6001600160a01b0394851681529290931660208301526040820152606081019190915260800190565b60006001600160a01b03808a16835280891660208401525060e06040830152620017dc60e0830188620016ad565b90508560608301528460808301528360a083015282151560c083015298975050505050505050565b901515815260200190565b600060408252620018246040830185620016ad565b90506001600160a01b03831660208301529392505050565b600060408252620018516040830185620016ad565b90508260208301529392505050565b60208082526026908201527f4f776e61626c653a206e6577206f776e657220697320746865207a65726f206160408201527f6464726573730000000000000000000000000000000000000000000000000000606082015260800190565b60208082526012908201527f4e6f7420656e6f7567682062616c616e63650000000000000000000000000000604082015260600190565b6020808252602e908201527f496e697469616c697a61626c653a20636f6e747261637420697320616c72656160408201527f647920696e697469616c697a6564000000000000000000000000000000000000606082015260800190565b6020808252600c908201527f496e76616c696420566f74650000000000000000000000000000000000000000604082015260600190565b6020808252600d908201527f4e6f206d696e20746f6b656e7300000000000000000000000000000000000000604082015260600190565b6020808252818101527f4f776e61626c653a2063616c6c6572206973206e6f7420746865206f776e6572604082015260600190565b60208082526010908201527f4e6f74206d696e206475726174696f6e00000000000000000000000000000000604082015260600190565b6020808252600d908201527f4e6f74206d696e20766f74657300000000000000000000000000000000000000604082015260600190565b60208082526011908201527f4e6f7420656e6f75676820746f6b656e73000000000000000000000000000000604082015260600190565b90815260200190565b6000821982111562001ab85762001ab862001b57565b500190565b60008262001ad957634e487b7160e01b81526012600452602481fd5b500490565b600081600019048311821515161562001afb5762001afb62001b57565b500290565b60008282101562001b155762001b1562001b57565b500390565b60028104600182168062001b2f57607f821691505b6020821081141562001b5157634e487b7160e01b600052602260045260246000fd5b50919050565b634e487b7160e01b600052601160045260246000fd5b634e487b7160e01b600052604160045260246000fd5b6001600160a01b03811681146200130a57600080fdfe60806040523480156200001157600080fd5b50604080518082018252600b81526a2430b8383c902a37b5b2b760a91b60208083019182528351808501909452600384526212141560ea1b90840152815191929183918391620000649160059162000294565b5080516200007a90600690602084019062000294565b50506007805460ff19169055506200009d60006200009762000103565b62000107565b620000cc7f9f2df0fed2c77648de5860a4cc508cd0818c85b8b8a1ab4ceeef8d981c8956a66200009762000103565b620000fb7f65d7a28e3265b37a6474929f336521b332c1681b933f6cb9f3376673440d862a6200009762000103565b505062000377565b3390565b6200011e82826200014a60201b620009081760201c565b600082815260016020908152604090912062000145918390620009126200015a821b17901c565b505050565b6200015682826200017a565b5050565b600062000171836001600160a01b03841662000204565b90505b92915050565b62000186828262000253565b62000156576000828152602081815260408083206001600160a01b03851684529091529020805460ff19166001179055620001c062000103565b6001600160a01b0316816001600160a01b0316837f2f8788117e7eff1d82e926ec794901d17c78024a50270940304540a733656f0d60405160405180910390a45050565b60006200021283836200027c565b6200024a5750815460018181018455600084815260208082209093018490558454848252828601909352604090209190915562000174565b50600062000174565b6000918252602082815260408084206001600160a01b0393909316845291905290205460ff1690565b60009081526001919091016020526040902054151590565b828054620002a2906200033a565b90600052602060002090601f016020900481019282620002c6576000855562000311565b82601f10620002e157805160ff191683800117855562000311565b8280016001018555821562000311579182015b8281111562000311578251825591602001919060010190620002f4565b506200031f92915062000323565b5090565b5b808211156200031f576000815560010162000324565b6002810460018216806200034f57607f821691505b602082108114156200037157634e487b7160e01b600052602260045260246000fd5b50919050565b611b8380620003876000396000f3fe608060405234801561001057600080fd5b50600436106101c45760003560e01c806370a08231116100f9578063a457c2d711610097578063d539139311610071578063d539139314610385578063d547741f1461038d578063dd62ed3e146103a0578063e63ab1e9146103b3576101c4565b8063a457c2d71461034c578063a9059cbb1461035f578063ca15c87314610372576101c4565b80639010d07c116100d35780639010d07c1461030957806391d148541461032957806395d89b411461033c578063a217fddf14610344576101c4565b806370a08231146102db57806379cc6790146102ee5780638456cb5914610301576101c4565b8063313ce567116101665780633f4ba83a116101405780633f4ba83a146102a557806340c10f19146102ad57806342966c68146102c05780635c975abb146102d3576101c4565b8063313ce5671461026a57806336568abe1461027f5780633950935114610292576101c4565b806318160ddd116101a257806318160ddd1461021a57806323b872dd1461022f578063248a9ca3146102425780632f2ff15d14610255576101c4565b806301ffc9a7146101c957806306fdde03146101f2578063095ea7b314610207575b600080fd5b6101dc6101d73660046112ed565b6103bb565b6040516101e99190611329565b60405180910390f35b6101fa610401565b6040516101e9919061133d565b6101dc610215366004611269565b610493565b6102226104b1565b6040516101e99190611334565b6101dc61023d36600461122e565b6104b7565b610222610250366004611292565b610557565b6102686102633660046112aa565b61056c565b005b610272610593565b6040516101e99190611abf565b61026861028d3660046112aa565b610598565b6101dc6102a0366004611269565b6105ba565b610268610609565b6102686102bb366004611269565b61065b565b6102686102ce366004611292565b6106b1565b6101dc6106c5565b6102226102e93660046111e2565b6106ce565b6102686102fc366004611269565b6106e9565b610268610739565b61031c6103173660046112cc565b610789565b6040516101e99190611315565b6101dc6103373660046112aa565b6107a8565b6101fa6107d1565b6102226107e0565b6101dc61035a366004611269565b6107e5565b6101dc61036d366004611269565b610860565b610222610380366004611292565b610874565b61022261088b565b61026861039b3660046112aa565b6108af565b6102226103ae3660046111fc565b6108b9565b6102226108e4565b60006001600160e01b031982167f5a05180f0000000000000000000000000000000000000000000000000000000014806103f957506103f982610927565b90505b919050565b60606005805461041090611afc565b80601f016020809104026020016040519081016040528092919081815260200182805461043c90611afc565b80156104895780601f1061045e57610100808354040283529160200191610489565b820191906000526020600020905b81548152906001019060200180831161046c57829003601f168201915b5050505050905090565b60006104a76104a0610965565b8484610969565b5060015b92915050565b60045490565b60006104c4848484610a1d565b6001600160a01b0384166000908152600360205260408120816104e5610965565b6001600160a01b03166001600160a01b03168152602001908152602001600020549050828110156105315760405162461bcd60e51b8152600401610528906116e6565b60405180910390fd5b61054c8561053d610965565b6105478685611ae5565b610969565b506001949350505050565b60009081526020819052604090206001015490565b6105768282610b45565b600082815260016020526040902061058e9082610912565b505050565b601290565b6105a28282610b75565b600082815260016020526040902061058e9082610bb7565b60006104a76105c7610965565b8484600360006105d5610965565b6001600160a01b03908116825260208083019390935260409182016000908120918b16815292529020546105479190611acd565b6106357f65d7a28e3265b37a6474929f336521b332c1681b933f6cb9f3376673440d862a610337610965565b6106515760405162461bcd60e51b81526004016105289061153b565b610659610bcc565b565b6106877f9f2df0fed2c77648de5860a4cc508cd0818c85b8b8a1ab4ceeef8d981c8956a6610337610965565b6106a35760405162461bcd60e51b815260040161052890611743565b6106ad8282610c3a565b5050565b6106c26106bc610965565b82610cfa565b50565b60075460ff1690565b6001600160a01b031660009081526002602052604090205490565b60006106f7836103ae610965565b9050818110156107195760405162461bcd60e51b8152600401610528906117a0565b61072f83610725610965565b6105478585611ae5565b61058e8383610cfa565b6107657f65d7a28e3265b37a6474929f336521b332c1681b933f6cb9f3376673440d862a610337610965565b6107815760405162461bcd60e51b815260040161052890611914565b610659610de0565b60008281526001602052604081206107a19083610e3b565b9392505050565b6000918252602082815260408084206001600160a01b0393909316845291905290205460ff1690565b60606006805461041090611afc565b600081565b600080600360006107f4610965565b6001600160a01b03908116825260208083019390935260409182016000908120918816815292529020549050828110156108405760405162461bcd60e51b815260040161052890611971565b61085661084b610965565b856105478685611ae5565b5060019392505050565b60006104a761086d610965565b8484610a1d565b60008181526001602052604081206103f990610e47565b7f9f2df0fed2c77648de5860a4cc508cd0818c85b8b8a1ab4ceeef8d981c8956a681565b6105a28282610e52565b6001600160a01b03918216600090815260036020908152604080832093909416825291909152205490565b7f65d7a28e3265b37a6474929f336521b332c1681b933f6cb9f3376673440d862a81565b6106ad8282610e7a565b60006107a1836001600160a01b038416610eff565b60006001600160e01b031982167f7965db0b0000000000000000000000000000000000000000000000000000000014806103f957506103f982610f49565b3390565b6001600160a01b03831661098f5760405162461bcd60e51b8152600401610528906118b7565b6001600160a01b0382166109b55760405162461bcd60e51b815260040161052890611598565b6001600160a01b0380841660008181526003602090815260408083209487168084529490915290819020849055517f8c5be1e5ebec7d5bd14f71427d1e84f3dd0314c0f7b2291e5b200ac8c7c3b92590610a10908590611334565b60405180910390a3505050565b6001600160a01b038316610a435760405162461bcd60e51b81526004016105289061185a565b6001600160a01b038216610a695760405162461bcd60e51b8152600401610528906113ed565b610a74838383610f7b565b6001600160a01b03831660009081526002602052604090205481811015610aad5760405162461bcd60e51b8152600401610528906115f5565b610ab78282611ae5565b6001600160a01b038086166000908152600260205260408082209390935590851681529081208054849290610aed908490611acd565b92505081905550826001600160a01b0316846001600160a01b03167fddf252ad1be2c89b69c2b068fc378daa952ba7f163c4a11628f55a4df523b3ef84604051610b379190611334565b60405180910390a350505050565b610b59610b5183610557565b610337610965565b6109085760405162461bcd60e51b81526004016105289061144a565b610b7d610965565b6001600160a01b0316816001600160a01b031614610bad5760405162461bcd60e51b8152600401610528906119ce565b6106ad8282610f86565b60006107a1836001600160a01b038416611009565b610bd46106c5565b610bf05760405162461bcd60e51b8152600401610528906114a7565b6007805460ff191690557f5db9ee0a495bf2e6ff9c91a7834c1ba4fdd244a5e8aa4e537bd38aeae4b073aa610c23610965565b604051610c309190611315565b60405180910390a1565b6001600160a01b038216610c605760405162461bcd60e51b815260040161052890611a2b565b610c6c60008383610f7b565b8060046000828254610c7e9190611acd565b90915550506001600160a01b03821660009081526002602052604081208054839290610cab908490611acd565b90915550506040516001600160a01b038316906000907fddf252ad1be2c89b69c2b068fc378daa952ba7f163c4a11628f55a4df523b3ef90610cee908590611334565b60405180910390a35050565b6001600160a01b038216610d205760405162461bcd60e51b8152600401610528906117fd565b610d2c82600083610f7b565b6001600160a01b03821660009081526002602052604090205481811015610d655760405162461bcd60e51b8152600401610528906114de565b610d6f8282611ae5565b6001600160a01b03841660009081526002602052604081209190915560048054849290610d9d908490611ae5565b90915550506040516000906001600160a01b038516907fddf252ad1be2c89b69c2b068fc378daa952ba7f163c4a11628f55a4df523b3ef90610a10908690611334565b610de86106c5565b15610e055760405162461bcd60e51b8152600401610528906116af565b6007805460ff191660011790557f62e78cea01bee320cd4e420270b5ea74000d11b0c9f74754ebdbfc544b05a258610c23610965565b60006107a18383611126565b60006103f98261117f565b610e5e610b5183610557565b610bad5760405162461bcd60e51b815260040161052890611652565b610e8482826107a8565b6106ad576000828152602081815260408083206001600160a01b03851684529091529020805460ff19166001179055610ebb610965565b6001600160a01b0316816001600160a01b0316837f2f8788117e7eff1d82e926ec794901d17c78024a50270940304540a733656f0d60405160405180910390a45050565b6000610f0b8383611183565b610f41575081546001818101845560008481526020808220909301849055845484825282860190935260409020919091556104ab565b5060006104ab565b6001600160e01b031981167f01ffc9a70000000000000000000000000000000000000000000000000000000014919050565b61058e83838361119b565b610f9082826107a8565b156106ad576000828152602081815260408083206001600160a01b03851684529091529020805460ff19169055610fc5610965565b6001600160a01b0316816001600160a01b0316837ff6391f5c32d9c69d2a47ea670b442974b53935d1edc7fd64eb21e047a839171b60405160405180910390a45050565b6000818152600183016020526040812054801561111c57600061102d600183611ae5565b855490915060009061104190600190611ae5565b9050600086600001828154811061106857634e487b7160e01b600052603260045260246000fd5b906000526020600020015490508087600001848154811061109957634e487b7160e01b600052603260045260246000fd5b6000918252602090912001556110b0836001611acd565b600082815260018901602052604090205586548790806110e057634e487b7160e01b600052603160045260246000fd5b600190038181906000526020600020016000905590558660010160008781526020019081526020016000206000905560019450505050506104ab565b60009150506104ab565b815460009082106111495760405162461bcd60e51b815260040161052890611390565b82600001828154811061116c57634e487b7160e01b600052603260045260246000fd5b9060005260206000200154905092915050565b5490565b60009081526001919091016020526040902054151590565b6111a683838361058e565b6111ae6106c5565b1561058e5760405162461bcd60e51b815260040161052890611a62565b80356001600160a01b03811681146103fc57600080fd5b6000602082840312156111f3578081fd5b6107a1826111cb565b6000806040838503121561120e578081fd5b611217836111cb565b9150611225602084016111cb565b90509250929050565b600080600060608486031215611242578081fd5b61124b846111cb565b9250611259602085016111cb565b9150604084013590509250925092565b6000806040838503121561127b578182fd5b611284836111cb565b946020939093013593505050565b6000602082840312156112a3578081fd5b5035919050565b600080604083850312156112bc578182fd5b82359150611225602084016111cb565b600080604083850312156112de578182fd5b50508035926020909101359150565b6000602082840312156112fe578081fd5b81356001600160e01b0319811681146107a1578182fd5b6001600160a01b0391909116815260200190565b901515815260200190565b90815260200190565b6000602080835283518082850152825b818110156113695785810183015185820160400152820161134d565b8181111561137a5783604083870101525b50601f01601f1916929092016040019392505050565b60208082526022908201527f456e756d657261626c655365743a20696e646578206f7574206f6620626f756e60408201527f6473000000000000000000000000000000000000000000000000000000000000606082015260800190565b60208082526023908201527f45524332303a207472616e7366657220746f20746865207a65726f206164647260408201527f6573730000000000000000000000000000000000000000000000000000000000606082015260800190565b6020808252602f908201527f416363657373436f6e74726f6c3a2073656e646572206d75737420626520616e60408201527f2061646d696e20746f206772616e740000000000000000000000000000000000606082015260800190565b60208082526014908201527f5061757361626c653a206e6f7420706175736564000000000000000000000000604082015260600190565b60208082526022908201527f45524332303a206275726e20616d6f756e7420657863656564732062616c616e60408201527f6365000000000000000000000000000000000000000000000000000000000000606082015260800190565b60208082526039908201527f45524332305072657365744d696e7465725061757365723a206d75737420686160408201527f76652070617573657220726f6c6520746f20756e706175736500000000000000606082015260800190565b60208082526022908201527f45524332303a20617070726f766520746f20746865207a65726f20616464726560408201527f7373000000000000000000000000000000000000000000000000000000000000606082015260800190565b60208082526026908201527f45524332303a207472616e7366657220616d6f756e742065786365656473206260408201527f616c616e63650000000000000000000000000000000000000000000000000000606082015260800190565b60208082526030908201527f416363657373436f6e74726f6c3a2073656e646572206d75737420626520616e60408201527f2061646d696e20746f207265766f6b6500000000000000000000000000000000606082015260800190565b60208082526010908201527f5061757361626c653a2070617573656400000000000000000000000000000000604082015260600190565b60208082526028908201527f45524332303a207472616e7366657220616d6f756e742065786365656473206160408201527f6c6c6f77616e6365000000000000000000000000000000000000000000000000606082015260800190565b60208082526036908201527f45524332305072657365744d696e7465725061757365723a206d75737420686160408201527f7665206d696e74657220726f6c6520746f206d696e7400000000000000000000606082015260800190565b60208082526024908201527f45524332303a206275726e20616d6f756e74206578636565647320616c6c6f7760408201527f616e636500000000000000000000000000000000000000000000000000000000606082015260800190565b60208082526021908201527f45524332303a206275726e2066726f6d20746865207a65726f2061646472657360408201527f7300000000000000000000000000000000000000000000000000000000000000606082015260800190565b60208082526025908201527f45524332303a207472616e736665722066726f6d20746865207a65726f20616460408201527f6472657373000000000000000000000000000000000000000000000000000000606082015260800190565b60208082526024908201527f45524332303a20617070726f76652066726f6d20746865207a65726f2061646460408201527f7265737300000000000000000000000000000000000000000000000000000000606082015260800190565b60208082526037908201527f45524332305072657365744d696e7465725061757365723a206d75737420686160408201527f76652070617573657220726f6c6520746f207061757365000000000000000000606082015260800190565b60208082526025908201527f45524332303a2064656372656173656420616c6c6f77616e63652062656c6f7760408201527f207a65726f000000000000000000000000000000000000000000000000000000606082015260800190565b6020808252602f908201527f416363657373436f6e74726f6c3a2063616e206f6e6c792072656e6f756e636560408201527f20726f6c657320666f722073656c660000000000000000000000000000000000606082015260800190565b6020808252601f908201527f45524332303a206d696e7420746f20746865207a65726f206164647265737300604082015260600190565b6020808252602a908201527f45524332305061757361626c653a20746f6b656e207472616e7366657220776860408201527f696c652070617573656400000000000000000000000000000000000000000000606082015260800190565b60ff91909116815260200190565b60008219821115611ae057611ae0611b37565b500190565b600082821015611af757611af7611b37565b500390565b600281046001821680611b1057607f821691505b60208210811415611b3157634e487b7160e01b600052602260045260246000fd5b50919050565b634e487b7160e01b600052601160045260246000fdfea2646970667358221220aaec1a8d792698aeb646cb807de6fe11868cbf833daee1ad6ac3b11a3327bbce64736f6c6343000800003354686520616464726573732025732069732072657175657374696e67206a6f696ea26469706673582212204d4835b08853fab259a77b65146716e3a418bc40581a899fb66a75ea37eadf7564736f6c63430008000033",
  "devdoc": {
    "kind": "dev",
    "methods": {
      "owner()": {
        "details": "Returns the address of the current owner."
      },
      "renounceOwnership()": {
        "details": "Leaves the contract without owner. It will not be possible to call `onlyOwner` functions anymore. Can only be called by the current owner. NOTE: Renouncing ownership will leave the contract without an owner, thereby removing any functionality that is only available to the owner."
      },
      "transferOwnership(address)": {
        "details": "Transfers ownership of the contract to a new account (`newOwner`). Can only be called by the current owner."
      }
    },
    "version": 1
  },
  "userdoc": {
    "kind": "user",
    "methods": {},
    "version": 1
  },
  "storageLayout": {
    "storage": [
      {
        "astId": 137,
        "contract": "contracts/HappyDao.sol:HappyDao",
        "label": "_initialized",
        "offset": 0,
        "slot": "0",
        "type": "t_bool"
      },
      {
        "astId": 140,
        "contract": "contracts/HappyDao.sol:HappyDao",
        "label": "_initializing",
        "offset": 1,
        "slot": "0",
        "type": "t_bool"
      },
      {
        "astId": 465,
        "contract": "contracts/HappyDao.sol:HappyDao",
        "label": "__gap",
        "offset": 0,
        "slot": "1",
        "type": "t_array(t_uint256)50_storage"
      },
      {
        "astId": 10,
        "contract": "contracts/HappyDao.sol:HappyDao",
        "label": "_owner",
        "offset": 0,
        "slot": "51",
        "type": "t_address"
      },
      {
        "astId": 129,
        "contract": "contracts/HappyDao.sol:HappyDao",
        "label": "__gap",
        "offset": 0,
        "slot": "52",
        "type": "t_array(t_uint256)49_storage"
      },
      {
        "astId": 2471,
        "contract": "contracts/HappyDao.sol:HappyDao",
        "label": "happyToken",
        "offset": 0,
        "slot": "101",
        "type": "t_contract(HappyToken)2976"
      },
      {
        "astId": 2473,
        "contract": "contracts/HappyDao.sol:HappyDao",
        "label": "tokenPrice",
        "offset": 0,
        "slot": "102",
        "type": "t_uint256"
      },
      {
        "astId": 2475,
        "contract": "contracts/HappyDao.sol:HappyDao",
        "label": "minTokensToJoin",
        "offset": 0,
        "slot": "103",
        "type": "t_uint256"
      },
      {
        "astId": 2505,
        "contract": "contracts/HappyDao.sol:HappyDao",
        "label": "proposalList",
        "offset": 0,
        "slot": "104",
        "type": "t_array(t_struct(Proposal)2501_storage)dyn_storage"
      }
    ],
    "types": {
      "t_address": {
        "encoding": "inplace",
        "label": "address",
        "numberOfBytes": "20"
      },
      "t_address_payable": {
        "encoding": "inplace",
        "label": "address payable",
        "numberOfBytes": "20"
      },
      "t_array(t_struct(Proposal)2501_storage)dyn_storage": {
        "base": "t_struct(Proposal)2501_storage",
        "encoding": "dynamic_array",
        "label": "struct HappyDao.Proposal[]",
        "numberOfBytes": "32"
      },
      "t_array(t_uint256)49_storage": {
        "base": "t_uint256",
        "encoding": "inplace",
        "label": "uint256[49]",
        "numberOfBytes": "1568"
      },
      "t_array(t_uint256)50_storage": {
        "base": "t_uint256",
        "encoding": "inplace",
        "label": "uint256[50]",
        "numberOfBytes": "1600"
      },
      "t_bool": {
        "encoding": "inplace",
        "label": "bool",
        "numberOfBytes": "1"
      },
      "t_contract(HappyToken)2976": {
        "encoding": "inplace",
        "label": "contract HappyToken",
        "numberOfBytes": "20"
      },
      "t_enum(Vote)2479": {
        "encoding": "inplace",
        "label": "enum HappyDao.Vote",
        "numberOfBytes": "1"
      },
      "t_mapping(t_address,t_enum(Vote)2479)": {
        "encoding": "mapping",
        "key": "t_address",
        "label": "mapping(address => enum HappyDao.Vote)",
        "numberOfBytes": "32",
        "value": "t_enum(Vote)2479"
      },
      "t_string_storage": {
        "encoding": "bytes",
        "label": "string",
        "numberOfBytes": "32"
      },
      "t_struct(Proposal)2501_storage": {
        "encoding": "inplace",
        "label": "struct HappyDao.Proposal",
        "members": [
          {
            "astId": 2481,
            "contract": "contracts/HappyDao.sol:HappyDao",
            "label": "proposer",
            "offset": 0,
            "slot": "0",
            "type": "t_address"
          },
          {
            "astId": 2483,
            "contract": "contracts/HappyDao.sol:HappyDao",
            "label": "applicant",
            "offset": 0,
            "slot": "1",
            "type": "t_address_payable"
          },
          {
            "astId": 2485,
            "contract": "contracts/HappyDao.sol:HappyDao",
            "label": "text",
            "offset": 0,
            "slot": "2",
            "type": "t_string_storage"
          },
          {
            "astId": 2487,
            "contract": "contracts/HappyDao.sol:HappyDao",
            "label": "amount",
            "offset": 0,
            "slot": "3",
            "type": "t_uint256"
          },
          {
            "astId": 2489,
            "contract": "contracts/HappyDao.sol:HappyDao",
            "label": "yesVotes",
            "offset": 0,
            "slot": "4",
            "type": "t_uint256"
          },
          {
            "astId": 2491,
            "contract": "contracts/HappyDao.sol:HappyDao",
            "label": "noVotes",
            "offset": 0,
            "slot": "5",
            "type": "t_uint256"
          },
          {
            "astId": 2496,
            "contract": "contracts/HappyDao.sol:HappyDao",
            "label": "votes",
            "offset": 0,
            "slot": "6",
            "type": "t_mapping(t_address,t_enum(Vote)2479)"
          },
          {
            "astId": 2498,
            "contract": "contracts/HappyDao.sol:HappyDao",
            "label": "submissionTime",
            "offset": 0,
            "slot": "7",
            "type": "t_uint256"
          },
          {
            "astId": 2500,
            "contract": "contracts/HappyDao.sol:HappyDao",
            "label": "disbursed",
            "offset": 0,
            "slot": "8",
            "type": "t_bool"
          }
        ],
        "numberOfBytes": "288"
      },
      "t_uint256": {
        "encoding": "inplace",
        "label": "uint256",
        "numberOfBytes": "32"
      }
    }
  }
}