{
  "address": "0xd39D58c690A01d8952e8649B7fa97933f532b0E7",
  "abi": [
    {
      "anonymous": false,
      "inputs": [
        {
          "indexed": false,
          "internalType": "address",
          "name": "proposer",
          "type": "address"
        },
        {
          "indexed": false,
          "internalType": "address",
          "name": "applicant",
          "type": "address"
        },
        {
          "indexed": false,
          "internalType": "uint256",
          "name": "amount",
          "type": "uint256"
        },
        {
          "indexed": false,
          "internalType": "uint256",
          "name": "length",
          "type": "uint256"
        }
      ],
      "name": "NewProposal",
      "type": "event"
    },
    {
      "anonymous": false,
      "inputs": [
        {
          "indexed": true,
          "internalType": "address",
          "name": "previousOwner",
          "type": "address"
        },
        {
          "indexed": true,
          "internalType": "address",
          "name": "newOwner",
          "type": "address"
        }
      ],
      "name": "OwnershipTransferred",
      "type": "event"
    },
    {
      "inputs": [
        {
          "internalType": "address",
          "name": "member",
          "type": "address"
        }
      ],
      "name": "canSubmitProposal",
      "outputs": [
        {
          "internalType": "bool",
          "name": "",
          "type": "bool"
        }
      ],
      "stateMutability": "view",
      "type": "function"
    },
    {
      "inputs": [
        {
          "internalType": "uint256",
          "name": "index",
          "type": "uint256"
        }
      ],
      "name": "getProposal",
      "outputs": [
        {
          "internalType": "address",
          "name": "proposer",
          "type": "address"
        },
        {
          "internalType": "address",
          "name": "applicant",
          "type": "address"
        },
        {
          "internalType": "uint256",
          "name": "amount",
          "type": "uint256"
        },
        {
          "internalType": "uint256",
          "name": "yesVotes",
          "type": "uint256"
        },
        {
          "internalType": "uint256",
          "name": "noVotes",
          "type": "uint256"
        }
      ],
      "stateMutability": "view",
      "type": "function"
    },
    {
      "inputs": [],
      "name": "happyToken",
      "outputs": [
        {
          "internalType": "contract HappyToken",
          "name": "",
          "type": "address"
        }
      ],
      "stateMutability": "view",
      "type": "function"
    },
    {
      "inputs": [
        {
          "internalType": "uint256",
          "name": "_price",
          "type": "uint256"
        },
        {
          "internalType": "uint256",
          "name": "_minTokensToJoin",
          "type": "uint256"
        }
      ],
      "name": "initialize",
      "outputs": [],
      "stateMutability": "nonpayable",
      "type": "function"
    },
    {
      "inputs": [
        {
          "internalType": "address",
          "name": "member",
          "type": "address"
        }
      ],
      "name": "isDaoMember",
      "outputs": [
        {
          "internalType": "bool",
          "name": "",
          "type": "bool"
        }
      ],
      "stateMutability": "view",
      "type": "function"
    },
    {
      "inputs": [],
      "name": "join",
      "outputs": [],
      "stateMutability": "payable",
      "type": "function"
    },
    {
      "inputs": [],
      "name": "minTokensToJoin",
      "outputs": [
        {
          "internalType": "uint256",
          "name": "",
          "type": "uint256"
        }
      ],
      "stateMutability": "view",
      "type": "function"
    },
    {
      "inputs": [],
      "name": "owner",
      "outputs": [
        {
          "internalType": "address",
          "name": "",
          "type": "address"
        }
      ],
      "stateMutability": "view",
      "type": "function"
    },
    {
      "inputs": [
        {
          "internalType": "uint256",
          "name": "submissionTime",
          "type": "uint256"
        }
      ],
      "name": "proposalHasPassedMinDuration",
      "outputs": [
        {
          "internalType": "bool",
          "name": "",
          "type": "bool"
        }
      ],
      "stateMutability": "view",
      "type": "function"
    },
    {
      "inputs": [
        {
          "internalType": "uint256",
          "name": "yesVoteCount",
          "type": "uint256"
        },
        {
          "internalType": "uint256",
          "name": "noVoteCount",
          "type": "uint256"
        }
      ],
      "name": "proposalHasRequiredYesVotes",
      "outputs": [
        {
          "internalType": "bool",
          "name": "",
          "type": "bool"
        }
      ],
      "stateMutability": "view",
      "type": "function"
    },
    {
      "inputs": [
        {
          "internalType": "uint256",
          "name": "",
          "type": "uint256"
        }
      ],
      "name": "proposalList",
      "outputs": [
        {
          "internalType": "address",
          "name": "proposer",
          "type": "address"
        },
        {
          "internalType": "address payable",
          "name": "applicant",
          "type": "address"
        },
        {
          "internalType": "uint256",
          "name": "amount",
          "type": "uint256"
        },
        {
          "internalType": "uint256",
          "name": "yesVotes",
          "type": "uint256"
        },
        {
          "internalType": "uint256",
          "name": "noVotes",
          "type": "uint256"
        },
        {
          "internalType": "uint256",
          "name": "submissionTime",
          "type": "uint256"
        }
      ],
      "stateMutability": "view",
      "type": "function"
    },
    {
      "inputs": [
        {
          "internalType": "uint256",
          "name": "proposalId",
          "type": "uint256"
        }
      ],
      "name": "releaseFund",
      "outputs": [],
      "stateMutability": "nonpayable",
      "type": "function"
    },
    {
      "inputs": [],
      "name": "renounceOwnership",
      "outputs": [],
      "stateMutability": "nonpayable",
      "type": "function"
    },
    {
      "inputs": [
        {
          "internalType": "address payable",
          "name": "_applicant",
          "type": "address"
        },
        {
          "internalType": "uint256",
          "name": "_amount",
          "type": "uint256"
        }
      ],
      "name": "submitProposal",
      "outputs": [],
      "stateMutability": "nonpayable",
      "type": "function"
    },
    {
      "inputs": [],
      "name": "tokenPrice",
      "outputs": [
        {
          "internalType": "uint256",
          "name": "",
          "type": "uint256"
        }
      ],
      "stateMutability": "view",
      "type": "function"
    },
    {
      "inputs": [
        {
          "internalType": "address",
          "name": "newOwner",
          "type": "address"
        }
      ],
      "name": "transferOwnership",
      "outputs": [],
      "stateMutability": "nonpayable",
      "type": "function"
    },
    {
      "inputs": [
        {
          "internalType": "uint256",
          "name": "proposalId",
          "type": "uint256"
        },
        {
          "internalType": "uint8",
          "name": "vote",
          "type": "uint8"
        }
      ],
      "name": "voteForProposal",
      "outputs": [],
      "stateMutability": "nonpayable",
      "type": "function"
    }
  ],
  "solcInputHash": "a173ad7110b186aa5f197d27d2aac0f6",
  "bytecode": "0x608060405234801561001057600080fd5b50615e86806100206000396000f3fe608060405260043610620001165760003560e01c80638da5cb5b11620000a3578063c6311e3f116200006d578063c6311e3f146200036d578063c7f758a814620003b6578063d2c056a614620003fe578063e4a30116146200042c578063f2fde38b146200045a5762000116565b80638da5cb5b14620002bf57806397d2247714620002ef578063ace2b7ec146200031d578063b688a36314620003615762000116565b80636a2b5a6a11620000e55780636a2b5a6a1462000203578063715018a614620002475780637ff9b596146200026157806383b2244114620002915762000116565b8063066eaa63146200011b5780631c67211d146200014b5780634f619ca0146200018f5780635e45060014620001d3575b600080fd5b3480156200012857600080fd5b506200013362000488565b604051620001429190620025a4565b60405180910390f35b3480156200015857600080fd5b5062000177600480360381019062000171919062001c9b565b6200048e565b604051620001869190620023ae565b60405180910390f35b3480156200019c57600080fd5b50620001bb6004803603810190620001b5919062001c9b565b6200054d565b604051620001ca9190620023ae565b60405180910390f35b348015620001e057600080fd5b50620001eb6200061a565b604051620001fa9190620023cb565b60405180910390f35b3480156200021057600080fd5b506200022f600480360381019062000229919062001d60565b62000640565b6040516200023e9190620023ae565b60405180910390f35b3480156200025457600080fd5b506200025f6200070a565b005b3480156200026e57600080fd5b50620002796200084e565b604051620002889190620025a4565b60405180910390f35b3480156200029e57600080fd5b50620002bd6004803603810190620002b7919062001da1565b62000854565b005b348015620002cc57600080fd5b50620002d762000d19565b604051620002e691906200224d565b60405180910390f35b348015620002fc57600080fd5b506200031b600480360381019062000315919062001d08565b62000d43565b005b3480156200032a57600080fd5b5062000349600480360381019062000343919062001d08565b62000ef4565b604051620003589190620023ae565b60405180910390f35b6200036b62000f10565b005b3480156200037a57600080fd5b5062000399600480360381019062000393919062001d08565b62001124565b604051620003ad96959493929190620022b7565b60405180910390f35b348015620003c357600080fd5b50620003e26004803603810190620003dc919062001d08565b620011b1565b604051620003f595949392919062002324565b60405180910390f35b3480156200040b57600080fd5b506200042a600480360381019062000424919062001cc7565b62001272565b005b3480156200043957600080fd5b5062000458600480360381019062000452919062001d60565b62001432565b005b3480156200046757600080fd5b5062000486600480360381019062000480919062001c9b565b62001597565b005b60675481565b6000606754606560009054906101000a900473ffffffffffffffffffffffffffffffffffffffff1673ffffffffffffffffffffffffffffffffffffffff166370a08231846040518263ffffffff1660e01b8152600401620004f091906200224d565b60206040518083038186803b1580156200050957600080fd5b505afa1580156200051e573d6000803e3d6000fd5b505050506040513d601f19601f8201168201806040525081019062000544919062001d34565b10159050919050565b6000600360675462000560919062002672565b606560009054906101000a900473ffffffffffffffffffffffffffffffffffffffff1673ffffffffffffffffffffffffffffffffffffffff166370a08231846040518263ffffffff1660e01b8152600401620005bd91906200224d565b60206040518083038186803b158015620005d657600080fd5b505afa158015620005eb573d6000803e3d6000fd5b505050506040513d601f19601f8201168201806040525081019062000611919062001d34565b10159050919050565b606560009054906101000a900473ffffffffffffffffffffffffffffffffffffffff1681565b600081831180156200070257506003606560009054906101000a900473ffffffffffffffffffffffffffffffffffffffff1673ffffffffffffffffffffffffffffffffffffffff166318160ddd6040518163ffffffff1660e01b815260040160206040518083038186803b158015620006b857600080fd5b505afa158015620006cd573d6000803e3d6000fd5b505050506040513d601f19601f82011682018060405250810190620006f3919062001d34565b620006ff91906200263a565b83115b905092915050565b620007146200174d565b73ffffffffffffffffffffffffffffffffffffffff166200073462000d19565b73ffffffffffffffffffffffffffffffffffffffff16146200078d576040517f08c379a000000000000000000000000000000000000000000000000000000000815260040162000784906200251c565b60405180910390fd5b600073ffffffffffffffffffffffffffffffffffffffff16603360009054906101000a900473ffffffffffffffffffffffffffffffffffffffff1673ffffffffffffffffffffffffffffffffffffffff167f8be0079c531659141344cd1fd0a4f28419497f9722a3daafe3b4186f6b6457e060405160405180910390a36000603360006101000a81548173ffffffffffffffffffffffffffffffffffffffff021916908373ffffffffffffffffffffffffffffffffffffffff160217905550565b60665481565b6200085f336200048e565b620008a1576040517f08c379a0000000000000000000000000000000000000000000000000000000008152600401620008989062002560565b60405180910390fd5b60038160ff1610620008ea576040517f08c379a0000000000000000000000000000000000000000000000000000000008152600401620008e190620024fa565b60405180910390fd5b60006068838154811062000927577f4e487b7100000000000000000000000000000000000000000000000000000000600052603260045260246000fd5b906000526020600020906007020190508160ff16600281111562000974577f4e487b7100000000000000000000000000000000000000000000000000000000600052602160045260246000fd5b8160050160003373ffffffffffffffffffffffffffffffffffffffff1673ffffffffffffffffffffffffffffffffffffffff16815260200190815260200160002060006101000a81548160ff02191690836002811115620009fe577f4e487b7100000000000000000000000000000000000000000000000000000000600052602160045260246000fd5b02179055506001600281111562000a3e577f4e487b7100000000000000000000000000000000000000000000000000000000600052602160045260246000fd5b8260ff16600281111562000a7b577f4e487b7100000000000000000000000000000000000000000000000000000000600052602160045260246000fd5b600281111562000ab4577f4e487b7100000000000000000000000000000000000000000000000000000000600052602160045260246000fd5b141562000b8e57606560009054906101000a900473ffffffffffffffffffffffffffffffffffffffff1673ffffffffffffffffffffffffffffffffffffffff166370a08231336040518263ffffffff1660e01b815260040162000b1891906200224d565b60206040518083038186803b15801562000b3157600080fd5b505afa15801562000b46573d6000803e3d6000fd5b505050506040513d601f19601f8201168201806040525081019062000b6c919062001d34565b81600301600082825462000b819190620025dd565b9250508190555062000d14565b60028081111562000bc8577f4e487b7100000000000000000000000000000000000000000000000000000000600052602160045260246000fd5b8260ff16600281111562000c05577f4e487b7100000000000000000000000000000000000000000000000000000000600052602160045260246000fd5b600281111562000c3e577f4e487b7100000000000000000000000000000000000000000000000000000000600052602160045260246000fd5b141562000d1357606560009054906101000a900473ffffffffffffffffffffffffffffffffffffffff1673ffffffffffffffffffffffffffffffffffffffff166370a08231336040518263ffffffff1660e01b815260040162000ca291906200224d565b60206040518083038186803b15801562000cbb57600080fd5b505afa15801562000cd0573d6000803e3d6000fd5b505050506040513d601f19601f8201168201806040525081019062000cf6919062001d34565b81600401600082825462000d0b9190620025dd565b925050819055505b5b505050565b6000603360009054906101000a900473ffffffffffffffffffffffffffffffffffffffff16905090565b60006068828154811062000d80577f4e487b7100000000000000000000000000000000000000000000000000000000600052603260045260246000fd5b9060005260206000209060070201905062000da48160030154826004015462000640565b62000de6576040517f08c379a000000000000000000000000000000000000000000000000000000000815260040162000ddd9062002582565b60405180910390fd5b62000df5816006015462000ef4565b62000e37576040517f08c379a000000000000000000000000000000000000000000000000000000000815260040162000e2e906200253e565b60405180910390fd5b8060020154471162000e80576040517f08c379a000000000000000000000000000000000000000000000000000000000815260040162000e7790620024d8565b60405180910390fd5b8060010160009054906101000a900473ffffffffffffffffffffffffffffffffffffffff1673ffffffffffffffffffffffffffffffffffffffff166108fc82600201549081150290604051600060405180830381858888f1935050505015801562000eef573d6000803e3d6000fd5b505050565b600062093a80824262000f089190620026d3565b119050919050565b62000f3560405180606001604052806021815260200162005e30602191393362001755565b60006066543462000f4791906200263a565b9050606754606560009054906101000a900473ffffffffffffffffffffffffffffffffffffffff1673ffffffffffffffffffffffffffffffffffffffff166370a08231336040518263ffffffff1660e01b815260040162000fa991906200224d565b60206040518083038186803b15801562000fc257600080fd5b505afa15801562000fd7573d6000803e3d6000fd5b505050506040513d601f19601f8201168201806040525081019062000ffd919062001d34565b826200100a9190620025dd565b116200104d576040517f08c379a0000000000000000000000000000000000000000000000000000000008152600401620010449062002450565b60405180910390fd5b6200108e6040518060400160405280601181526020017f4d696e74696e6720257320746f6b656e7300000000000000000000000000000081525082620017f5565b606560009054906101000a900473ffffffffffffffffffffffffffffffffffffffff1673ffffffffffffffffffffffffffffffffffffffff166340c10f1933836040518363ffffffff1660e01b8152600401620010ed92919062002381565b600060405180830381600087803b1580156200110857600080fd5b505af11580156200111d573d6000803e3d6000fd5b5050505050565b606881815481106200113557600080fd5b90600052602060002090600702016000915090508060000160009054906101000a900473ffffffffffffffffffffffffffffffffffffffff16908060010160009054906101000a900473ffffffffffffffffffffffffffffffffffffffff16908060020154908060030154908060040154908060060154905086565b60008060008060008060688781548110620011f5577f4e487b7100000000000000000000000000000000000000000000000000000000600052603260045260246000fd5b906000526020600020906007020190508060000160009054906101000a900473ffffffffffffffffffffffffffffffffffffffff168160010160009054906101000a900473ffffffffffffffffffffffffffffffffffffffff16826002015483600301548460040154955095509550955095505091939590929450565b6200127d336200054d565b620012bf576040517f08c379a0000000000000000000000000000000000000000000000000000000008152600401620012b69062002494565b60405180910390fd5b600060686001816001815401808255809150500390600052602060002090600702019050338160000160006101000a81548173ffffffffffffffffffffffffffffffffffffffff021916908373ffffffffffffffffffffffffffffffffffffffff160217905550828160010160006101000a81548173ffffffffffffffffffffffffffffffffffffffff021916908373ffffffffffffffffffffffffffffffffffffffff16021790555081816002018190555060008160030181905550600081600401819055504281600601819055507f8c90a8ee3c17fdf62b14bc1b1a74b1af0a96aca2f5aa83c58db62da1ead91b0b8160000160009054906101000a900473ffffffffffffffffffffffffffffffffffffffff168260010160009054906101000a900473ffffffffffffffffffffffffffffffffffffffff1683600201546001606880549050620014139190620026d3565b6040516200142594939291906200226a565b60405180910390a1505050565b600060019054906101000a900460ff168062001459575060008054906101000a900460ff16155b6200149b576040517f08c379a00000000000000000000000000000000000000000000000000000000081526004016200149290620024b6565b60405180910390fd5b60008060019054906101000a900460ff161590508015620014ec576001600060016101000a81548160ff02191690831515021790555060016000806101000a81548160ff0219169083151502179055505b604051620014fa9062001c1a565b604051809103906000f08015801562001517573d6000803e3d6000fd5b50606560006101000a81548173ffffffffffffffffffffffffffffffffffffffff021916908373ffffffffffffffffffffffffffffffffffffffff16021790555082606681905550816067819055506200157062001895565b8015620015925760008060016101000a81548160ff0219169083151502179055505b505050565b620015a16200174d565b73ffffffffffffffffffffffffffffffffffffffff16620015c162000d19565b73ffffffffffffffffffffffffffffffffffffffff16146200161a576040517f08c379a000000000000000000000000000000000000000000000000000000000815260040162001611906200251c565b60405180910390fd5b600073ffffffffffffffffffffffffffffffffffffffff168173ffffffffffffffffffffffffffffffffffffffff1614156200168d576040517f08c379a0000000000000000000000000000000000000000000000000000000008152600401620016849062002472565b60405180910390fd5b8073ffffffffffffffffffffffffffffffffffffffff16603360009054906101000a900473ffffffffffffffffffffffffffffffffffffffff1673ffffffffffffffffffffffffffffffffffffffff167f8be0079c531659141344cd1fd0a4f28419497f9722a3daafe3b4186f6b6457e060405160405180910390a380603360006101000a81548173ffffffffffffffffffffffffffffffffffffffff021916908373ffffffffffffffffffffffffffffffffffffffff16021790555050565b600033905090565b620017f182826040516024016200176e929190620023e8565b6040516020818303038152906040527f319af333000000000000000000000000000000000000000000000000000000007bffffffffffffffffffffffffffffffffffffffffffffffffffffffff19166020820180517bffffffffffffffffffffffffffffffffffffffffffffffffffffffff838183161783525050505062001988565b5050565b6200189182826040516024016200180e9291906200241c565b6040516020818303038152906040527f9710a9d0000000000000000000000000000000000000000000000000000000007bffffffffffffffffffffffffffffffffffffffffffffffffffffffff19166020820180517bffffffffffffffffffffffffffffffffffffffffffffffffffffffff838183161783525050505062001988565b5050565b600060019054906101000a900460ff1680620018bc575060008054906101000a900460ff16155b620018fe576040517f08c379a0000000000000000000000000000000000000000000000000000000008152600401620018f590620024b6565b60405180910390fd5b60008060019054906101000a900460ff1615905080156200194f576001600060016101000a81548160ff02191690831515021790555060016000806101000a81548160ff0219169083151502179055505b62001959620019b1565b6200196362001a90565b8015620019855760008060016101000a81548160ff0219169083151502179055505b50565b60008151905060006a636f6e736f6c652e6c6f679050602083016000808483855afa5050505050565b600060019054906101000a900460ff1680620019d8575060008054906101000a900460ff16155b62001a1a576040517f08c379a000000000000000000000000000000000000000000000000000000000815260040162001a1190620024b6565b60405180910390fd5b60008060019054906101000a900460ff16159050801562001a6b576001600060016101000a81548160ff02191690831515021790555060016000806101000a81548160ff0219169083151502179055505b801562001a8d5760008060016101000a81548160ff0219169083151502179055505b50565b600060019054906101000a900460ff168062001ab7575060008054906101000a900460ff16155b62001af9576040517f08c379a000000000000000000000000000000000000000000000000000000000815260040162001af090620024b6565b60405180910390fd5b60008060019054906101000a900460ff16159050801562001b4a576001600060016101000a81548160ff02191690831515021790555060016000806101000a81548160ff0219169083151502179055505b600062001b566200174d565b905080603360006101000a81548173ffffffffffffffffffffffffffffffffffffffff021916908373ffffffffffffffffffffffffffffffffffffffff1602179055508073ffffffffffffffffffffffffffffffffffffffff16600073ffffffffffffffffffffffffffffffffffffffff167f8be0079c531659141344cd1fd0a4f28419497f9722a3daafe3b4186f6b6457e060405160405180910390a350801562001c175760008060016101000a81548160ff0219169083151502179055505b50565b61354580620028eb83390190565b60008135905062001c398162002882565b92915050565b60008135905062001c50816200289c565b92915050565b60008135905062001c6781620028b6565b92915050565b60008151905062001c7e81620028b6565b92915050565b60008135905062001c9581620028d0565b92915050565b60006020828403121562001cae57600080fd5b600062001cbe8482850162001c28565b91505092915050565b6000806040838503121562001cdb57600080fd5b600062001ceb8582860162001c3f565b925050602062001cfe8582860162001c56565b9150509250929050565b60006020828403121562001d1b57600080fd5b600062001d2b8482850162001c56565b91505092915050565b60006020828403121562001d4757600080fd5b600062001d578482850162001c6d565b91505092915050565b6000806040838503121562001d7457600080fd5b600062001d848582860162001c56565b925050602062001d978582860162001c56565b9150509250929050565b6000806040838503121562001db557600080fd5b600062001dc58582860162001c56565b925050602062001dd88582860162001c84565b9150509250929050565b62001ded8162002779565b82525050565b62001dfe8162002722565b82525050565b62001e0f816200270e565b82525050565b62001e208162002736565b82525050565b62001e31816200278d565b82525050565b600062001e4482620025c1565b62001e508185620025cc565b935062001e62818560208601620027dd565b62001e6d8162002871565b840191505092915050565b600062001e87602b83620025cc565b91507f596f75206861766520746f207075726368617365206d696e696d756d20746f6b60008301527f656e7320746f206a6f696e0000000000000000000000000000000000000000006020830152604082019050919050565b600062001eef602683620025cc565b91507f4f776e61626c653a206e6577206f776e657220697320746865207a65726f206160008301527f64647265737300000000000000000000000000000000000000000000000000006020830152604082019050919050565b600062001f57603083620025cc565b91507f596f7520646f206e6f74206861766520656e6f75676820746f6b656e7320746f60008301527f207375626d69742070726f706f73616c000000000000000000000000000000006020830152604082019050919050565b600062001fbf602e83620025cc565b91507f496e697469616c697a61626c653a20636f6e747261637420697320616c72656160008301527f647920696e697469616c697a65640000000000000000000000000000000000006020830152604082019050919050565b600062002027602983620025cc565b91507f54686520747265617375727920646f6573206e6f74206861766520656e6f756760008301527f682062616c616e636500000000000000000000000000000000000000000000006020830152604082019050919050565b60006200208f600c83620025cc565b91507f496e76616c696420566f746500000000000000000000000000000000000000006000830152602082019050919050565b6000620020d1602083620025cc565b91507f4f776e61626c653a2063616c6c6572206973206e6f7420746865206f776e65726000830152602082019050919050565b600062002113602883620025cc565b91507f50726f706f73616c20686173206e6f7420706173736564206d696e696d756d2060008301527f6475726174696f6e0000000000000000000000000000000000000000000000006020830152604082019050919050565b60006200217b603283620025cc565b91507f596f7520646f206e6f74206861766520656e6f75676820746f6b656e7320746f60008301527f20766f746520666f722070726f706f73616c00000000000000000000000000006020830152604082019050919050565b6000620021e3602483620025cc565b91507f50726f706f73616c20646f6573206e6f742068617665206d696e696d756d207660008301527f6f746573000000000000000000000000000000000000000000000000000000006020830152604082019050919050565b620022478162002762565b82525050565b600060208201905062002264600083018462001e04565b92915050565b600060808201905062002281600083018762001e04565b62002290602083018662001de2565b6200229f60408301856200223c565b620022ae60608301846200223c565b95945050505050565b600060c082019050620022ce600083018962001e04565b620022dd602083018862001df3565b620022ec60408301876200223c565b620022fb60608301866200223c565b6200230a60808301856200223c565b6200231960a08301846200223c565b979650505050505050565b600060a0820190506200233b600083018862001e04565b6200234a602083018762001e04565b6200235960408301866200223c565b6200236860608301856200223c565b6200237760808301846200223c565b9695505050505050565b600060408201905062002398600083018562001e04565b620023a760208301846200223c565b9392505050565b6000602082019050620023c5600083018462001e15565b92915050565b6000602082019050620023e2600083018462001e26565b92915050565b6000604082019050818103600083015262002404818562001e37565b905062002415602083018462001e04565b9392505050565b6000604082019050818103600083015262002438818562001e37565b90506200244960208301846200223c565b9392505050565b600060208201905081810360008301526200246b8162001e78565b9050919050565b600060208201905081810360008301526200248d8162001ee0565b9050919050565b60006020820190508181036000830152620024af8162001f48565b9050919050565b60006020820190508181036000830152620024d18162001fb0565b9050919050565b60006020820190508181036000830152620024f38162002018565b9050919050565b60006020820190508181036000830152620025158162002080565b9050919050565b600060208201905081810360008301526200253781620020c2565b9050919050565b60006020820190508181036000830152620025598162002104565b9050919050565b600060208201905081810360008301526200257b816200216c565b9050919050565b600060208201905081810360008301526200259d81620021d4565b9050919050565b6000602082019050620025bb60008301846200223c565b92915050565b600081519050919050565b600082825260208201905092915050565b6000620025ea8262002762565b9150620025f78362002762565b9250827fffffffffffffffffffffffffffffffffffffffffffffffffffffffffffffffff038211156200262f576200262e62002813565b5b828201905092915050565b6000620026478262002762565b9150620026548362002762565b92508262002667576200266662002842565b5b828204905092915050565b60006200267f8262002762565b91506200268c8362002762565b9250817fffffffffffffffffffffffffffffffffffffffffffffffffffffffffffffffff0483118215151615620026c857620026c762002813565b5b828202905092915050565b6000620026e08262002762565b9150620026ed8362002762565b92508282101562002703576200270262002813565b5b828203905092915050565b60006200271b8262002742565b9050919050565b60006200272f8262002742565b9050919050565b60008115159050919050565b600073ffffffffffffffffffffffffffffffffffffffff82169050919050565b6000819050919050565b600060ff82169050919050565b60006200278682620027b5565b9050919050565b60006200279a82620027a1565b9050919050565b6000620027ae8262002742565b9050919050565b6000620027c282620027c9565b9050919050565b6000620027d68262002742565b9050919050565b60005b83811015620027fd578082015181840152602081019050620027e0565b838111156200280d576000848401525b50505050565b7f4e487b7100000000000000000000000000000000000000000000000000000000600052601160045260246000fd5b7f4e487b7100000000000000000000000000000000000000000000000000000000600052601260045260246000fd5b6000601f19601f8301169050919050565b6200288d816200270e565b81146200289957600080fd5b50565b620028a78162002722565b8114620028b357600080fd5b50565b620028c18162002762565b8114620028cd57600080fd5b50565b620028db816200276c565b8114620028e757600080fd5b5056fe60806040523480156200001157600080fd5b506040518060400160405280600b81526020017f486170707920546f6b656e0000000000000000000000000000000000000000008152506040518060400160405280600381526020017f4850540000000000000000000000000000000000000000000000000000000000815250818181600590805190602001906200009892919062000413565b508060069080519060200190620000b192919062000413565b5050506000600760006101000a81548160ff021916908315150217905550620000f36000801b620000e76200017d60201b60201c565b6200018560201b60201c565b620001347f9f2df0fed2c77648de5860a4cc508cd0818c85b8b8a1ab4ceeef8d981c8956a6620001286200017d60201b60201c565b6200018560201b60201c565b620001757f65d7a28e3265b37a6474929f336521b332c1681b933f6cb9f3376673440d862a620001696200017d60201b60201c565b6200018560201b60201c565b505062000528565b600033905090565b6200019c8282620001cd60201b62000efb1760201c565b620001c88160016000858152602001908152602001600020620001e360201b62000f091790919060201c565b505050565b620001df82826200021b60201b60201c565b5050565b600062000213836000018373ffffffffffffffffffffffffffffffffffffffff1660001b6200030c60201b60201c565b905092915050565b6200022d82826200038660201b60201c565b6200030857600160008084815260200190815260200160002060000160008373ffffffffffffffffffffffffffffffffffffffff1673ffffffffffffffffffffffffffffffffffffffff16815260200190815260200160002060006101000a81548160ff021916908315150217905550620002ad6200017d60201b60201c565b73ffffffffffffffffffffffffffffffffffffffff168173ffffffffffffffffffffffffffffffffffffffff16837f2f8788117e7eff1d82e926ec794901d17c78024a50270940304540a733656f0d60405160405180910390a45b5050565b6000620003208383620003f060201b60201c565b6200037b57826000018290806001815401808255809150506001900390600052602060002001600090919091909150558260000180549050836001016000848152602001908152602001600020819055506001905062000380565b600090505b92915050565b600080600084815260200190815260200160002060000160008373ffffffffffffffffffffffffffffffffffffffff1673ffffffffffffffffffffffffffffffffffffffff16815260200190815260200160002060009054906101000a900460ff16905092915050565b600080836001016000848152602001908152602001600020541415905092915050565b8280546200042190620004c3565b90600052602060002090601f01602090048101928262000445576000855562000491565b82601f106200046057805160ff191683800117855562000491565b8280016001018555821562000491579182015b828111156200049057825182559160200191906001019062000473565b5b509050620004a09190620004a4565b5090565b5b80821115620004bf576000816000905550600101620004a5565b5090565b60006002820490506001821680620004dc57607f821691505b60208210811415620004f357620004f2620004f9565b5b50919050565b7f4e487b7100000000000000000000000000000000000000000000000000000000600052602260045260246000fd5b61300d80620005386000396000f3fe608060405234801561001057600080fd5b50600436106101c45760003560e01c806370a08231116100f9578063a457c2d711610097578063d539139311610071578063d53913931461052d578063d547741f1461054b578063dd62ed3e14610567578063e63ab1e914610597576101c4565b8063a457c2d71461049d578063a9059cbb146104cd578063ca15c873146104fd576101c4565b80639010d07c116100d35780639010d07c1461040157806391d148541461043157806395d89b4114610461578063a217fddf1461047f576101c4565b806370a08231146103ab57806379cc6790146103db5780638456cb59146103f7576101c4565b8063313ce567116101665780633f4ba83a116101405780633f4ba83a1461034b57806340c10f191461035557806342966c68146103715780635c975abb1461038d576101c4565b8063313ce567146102e157806336568abe146102ff578063395093511461031b576101c4565b806318160ddd116101a257806318160ddd1461024757806323b872dd14610265578063248a9ca3146102955780632f2ff15d146102c5576101c4565b806301ffc9a7146101c957806306fdde03146101f9578063095ea7b314610217575b600080fd5b6101e360048036038101906101de919061216b565b6105b5565b6040516101f09190612a48565b60405180910390f35b61020161062f565b60405161020e9190612a7e565b60405180910390f35b610231600480360381019061022c919061208e565b6106c1565b60405161023e9190612a48565b60405180910390f35b61024f6106df565b60405161025c9190612d40565b60405180910390f35b61027f600480360381019061027a919061203f565b6106e9565b60405161028c9190612a48565b60405180910390f35b6102af60048036038101906102aa91906120ca565b6107ea565b6040516102bc9190612a63565b60405180910390f35b6102df60048036038101906102da91906120f3565b610809565b005b6102e961083d565b6040516102f69190612d5b565b60405180910390f35b610319600480360381019061031491906120f3565b610846565b005b6103356004803603810190610330919061208e565b61087a565b6040516103429190612a48565b60405180910390f35b610353610926565b005b61036f600480360381019061036a919061208e565b6109a0565b005b61038b60048036038101906103869190612194565b610a1e565b005b610395610a32565b6040516103a29190612a48565b60405180910390f35b6103c560048036038101906103c09190611fda565b610a49565b6040516103d29190612d40565b60405180910390f35b6103f560048036038101906103f0919061208e565b610a92565b005b6103ff610b16565b005b61041b6004803603810190610416919061212f565b610b90565b6040516104289190612a2d565b60405180910390f35b61044b600480360381019061044691906120f3565b610bbf565b6040516104589190612a48565b60405180910390f35b610469610c29565b6040516104769190612a7e565b60405180910390f35b610487610cbb565b6040516104949190612a63565b60405180910390f35b6104b760048036038101906104b2919061208e565b610cc2565b6040516104c49190612a48565b60405180910390f35b6104e760048036038101906104e2919061208e565b610db6565b6040516104f49190612a48565b60405180910390f35b610517600480360381019061051291906120ca565b610dd4565b6040516105249190612d40565b60405180910390f35b610535610df8565b6040516105429190612a63565b60405180910390f35b610565600480360381019061056091906120f3565b610e1c565b005b610581600480360381019061057c9190612003565b610e50565b60405161058e9190612d40565b60405180910390f35b61059f610ed7565b6040516105ac9190612a63565b60405180910390f35b60007f5a05180f000000000000000000000000000000000000000000000000000000007bffffffffffffffffffffffffffffffffffffffffffffffffffffffff1916827bffffffffffffffffffffffffffffffffffffffffffffffffffffffff19161480610628575061062782610f39565b5b9050919050565b60606005805461063e90612eda565b80601f016020809104026020016040519081016040528092919081815260200182805461066a90612eda565b80156106b75780601f1061068c576101008083540402835291602001916106b7565b820191906000526020600020905b81548152906001019060200180831161069a57829003601f168201915b5050505050905090565b60006106d56106ce610fb3565b8484610fbb565b6001905092915050565b6000600454905090565b60006106f6848484611186565b6000600360008673ffffffffffffffffffffffffffffffffffffffff1673ffffffffffffffffffffffffffffffffffffffff1681526020019081526020016000206000610741610fb3565b73ffffffffffffffffffffffffffffffffffffffff1673ffffffffffffffffffffffffffffffffffffffff168152602001908152602001600020549050828110156107c1576040517f08c379a00000000000000000000000000000000000000000000000000000000081526004016107b890612be0565b60405180910390fd5b6107de856107cd610fb3565b85846107d99190612de8565b610fbb565b60019150509392505050565b6000806000838152602001908152602001600020600101549050919050565b6108138282611408565b6108388160016000858152602001908152602001600020610f0990919063ffffffff16565b505050565b60006012905090565b610850828261146e565b61087581600160008581526020019081526020016000206114f190919063ffffffff16565b505050565b600061091c610887610fb3565b848460036000610895610fb3565b73ffffffffffffffffffffffffffffffffffffffff1673ffffffffffffffffffffffffffffffffffffffff16815260200190815260200160002060008873ffffffffffffffffffffffffffffffffffffffff1673ffffffffffffffffffffffffffffffffffffffff168152602001908152602001600020546109179190612d92565b610fbb565b6001905092915050565b6109577f65d7a28e3265b37a6474929f336521b332c1681b933f6cb9f3376673440d862a610952610fb3565b610bbf565b610996576040517f08c379a000000000000000000000000000000000000000000000000000000000815260040161098d90612b40565b60405180910390fd5b61099e611521565b565b6109d17f9f2df0fed2c77648de5860a4cc508cd0818c85b8b8a1ab4ceeef8d981c8956a66109cc610fb3565b610bbf565b610a10576040517f08c379a0000000000000000000000000000000000000000000000000000000008152600401610a0790612c00565b60405180910390fd5b610a1a82826115c3565b5050565b610a2f610a29610fb3565b82611718565b50565b6000600760009054906101000a900460ff16905090565b6000600260008373ffffffffffffffffffffffffffffffffffffffff1673ffffffffffffffffffffffffffffffffffffffff168152602001908152602001600020549050919050565b6000610aa583610aa0610fb3565b610e50565b905081811015610aea576040517f08c379a0000000000000000000000000000000000000000000000000000000008152600401610ae190612c20565b60405180910390fd5b610b0783610af6610fb3565b8484610b029190612de8565b610fbb565b610b118383611718565b505050565b610b477f65d7a28e3265b37a6474929f336521b332c1681b933f6cb9f3376673440d862a610b42610fb3565b610bbf565b610b86576040517f08c379a0000000000000000000000000000000000000000000000000000000008152600401610b7d90612ca0565b60405180910390fd5b610b8e6118ee565b565b6000610bb7826001600086815260200190815260200160002061199190919063ffffffff16565b905092915050565b600080600084815260200190815260200160002060000160008373ffffffffffffffffffffffffffffffffffffffff1673ffffffffffffffffffffffffffffffffffffffff16815260200190815260200160002060009054906101000a900460ff16905092915050565b606060068054610c3890612eda565b80601f0160208091040260200160405190810160405280929190818152602001828054610c6490612eda565b8015610cb15780601f10610c8657610100808354040283529160200191610cb1565b820191906000526020600020905b815481529060010190602001808311610c9457829003601f168201915b5050505050905090565b6000801b81565b60008060036000610cd1610fb3565b73ffffffffffffffffffffffffffffffffffffffff1673ffffffffffffffffffffffffffffffffffffffff16815260200190815260200160002060008573ffffffffffffffffffffffffffffffffffffffff1673ffffffffffffffffffffffffffffffffffffffff16815260200190815260200160002054905082811015610d8e576040517f08c379a0000000000000000000000000000000000000000000000000000000008152600401610d8590612cc0565b60405180910390fd5b610dab610d99610fb3565b858584610da69190612de8565b610fbb565b600191505092915050565b6000610dca610dc3610fb3565b8484611186565b6001905092915050565b6000610df1600160008481526020019081526020016000206119ab565b9050919050565b7f9f2df0fed2c77648de5860a4cc508cd0818c85b8b8a1ab4ceeef8d981c8956a681565b610e2682826119c0565b610e4b81600160008581526020019081526020016000206114f190919063ffffffff16565b505050565b6000600360008473ffffffffffffffffffffffffffffffffffffffff1673ffffffffffffffffffffffffffffffffffffffff16815260200190815260200160002060008373ffffffffffffffffffffffffffffffffffffffff1673ffffffffffffffffffffffffffffffffffffffff16815260200190815260200160002054905092915050565b7f65d7a28e3265b37a6474929f336521b332c1681b933f6cb9f3376673440d862a81565b610f058282611a26565b5050565b6000610f31836000018373ffffffffffffffffffffffffffffffffffffffff1660001b611b06565b905092915050565b60007f7965db0b000000000000000000000000000000000000000000000000000000007bffffffffffffffffffffffffffffffffffffffffffffffffffffffff1916827bffffffffffffffffffffffffffffffffffffffffffffffffffffffff19161480610fac5750610fab82611b76565b5b9050919050565b600033905090565b600073ffffffffffffffffffffffffffffffffffffffff168373ffffffffffffffffffffffffffffffffffffffff16141561102b576040517f08c379a000000000000000000000000000000000000000000000000000000000815260040161102290612c80565b60405180910390fd5b600073ffffffffffffffffffffffffffffffffffffffff168273ffffffffffffffffffffffffffffffffffffffff16141561109b576040517f08c379a000000000000000000000000000000000000000000000000000000000815260040161109290612b60565b60405180910390fd5b80600360008573ffffffffffffffffffffffffffffffffffffffff1673ffffffffffffffffffffffffffffffffffffffff16815260200190815260200160002060008473ffffffffffffffffffffffffffffffffffffffff1673ffffffffffffffffffffffffffffffffffffffff168152602001908152602001600020819055508173ffffffffffffffffffffffffffffffffffffffff168373ffffffffffffffffffffffffffffffffffffffff167f8c5be1e5ebec7d5bd14f71427d1e84f3dd0314c0f7b2291e5b200ac8c7c3b925836040516111799190612d40565b60405180910390a3505050565b600073ffffffffffffffffffffffffffffffffffffffff168373ffffffffffffffffffffffffffffffffffffffff1614156111f6576040517f08c379a00000000000000000000000000000000000000000000000000000000081526004016111ed90612c60565b60405180910390fd5b600073ffffffffffffffffffffffffffffffffffffffff168273ffffffffffffffffffffffffffffffffffffffff161415611266576040517f08c379a000000000000000000000000000000000000000000000000000000000815260040161125d90612ac0565b60405180910390fd5b611271838383611be0565b6000600260008573ffffffffffffffffffffffffffffffffffffffff1673ffffffffffffffffffffffffffffffffffffffff168152602001908152602001600020549050818110156112f8576040517f08c379a00000000000000000000000000000000000000000000000000000000081526004016112ef90612b80565b60405180910390fd5b81816113049190612de8565b600260008673ffffffffffffffffffffffffffffffffffffffff1673ffffffffffffffffffffffffffffffffffffffff1681526020019081526020016000208190555081600260008573ffffffffffffffffffffffffffffffffffffffff1673ffffffffffffffffffffffffffffffffffffffff16815260200190815260200160002060008282546113969190612d92565b925050819055508273ffffffffffffffffffffffffffffffffffffffff168473ffffffffffffffffffffffffffffffffffffffff167fddf252ad1be2c89b69c2b068fc378daa952ba7f163c4a11628f55a4df523b3ef846040516113fa9190612d40565b60405180910390a350505050565b611421611414836107ea565b61141c610fb3565b610bbf565b611460576040517f08c379a000000000000000000000000000000000000000000000000000000000815260040161145790612ae0565b60405180910390fd5b61146a8282611a26565b5050565b611476610fb3565b73ffffffffffffffffffffffffffffffffffffffff168173ffffffffffffffffffffffffffffffffffffffff16146114e3576040517f08c379a00000000000000000000000000000000000000000000000000000000081526004016114da90612ce0565b60405180910390fd5b6114ed8282611bf0565b5050565b6000611519836000018373ffffffffffffffffffffffffffffffffffffffff1660001b611cd1565b905092915050565b611529610a32565b611568576040517f08c379a000000000000000000000000000000000000000000000000000000000815260040161155f90612b00565b60405180910390fd5b6000600760006101000a81548160ff0219169083151502179055507f5db9ee0a495bf2e6ff9c91a7834c1ba4fdd244a5e8aa4e537bd38aeae4b073aa6115ac610fb3565b6040516115b99190612a2d565b60405180910390a1565b600073ffffffffffffffffffffffffffffffffffffffff168273ffffffffffffffffffffffffffffffffffffffff161415611633576040517f08c379a000000000000000000000000000000000000000000000000000000000815260040161162a90612d00565b60405180910390fd5b61163f60008383611be0565b80600460008282546116519190612d92565b9250508190555080600260008473ffffffffffffffffffffffffffffffffffffffff1673ffffffffffffffffffffffffffffffffffffffff16815260200190815260200160002060008282546116a79190612d92565b925050819055508173ffffffffffffffffffffffffffffffffffffffff16600073ffffffffffffffffffffffffffffffffffffffff167fddf252ad1be2c89b69c2b068fc378daa952ba7f163c4a11628f55a4df523b3ef8360405161170c9190612d40565b60405180910390a35050565b600073ffffffffffffffffffffffffffffffffffffffff168273ffffffffffffffffffffffffffffffffffffffff161415611788576040517f08c379a000000000000000000000000000000000000000000000000000000000815260040161177f90612c40565b60405180910390fd5b61179482600083611be0565b6000600260008473ffffffffffffffffffffffffffffffffffffffff1673ffffffffffffffffffffffffffffffffffffffff1681526020019081526020016000205490508181101561181b576040517f08c379a000000000000000000000000000000000000000000000000000000000815260040161181290612b20565b60405180910390fd5b81816118279190612de8565b600260008573ffffffffffffffffffffffffffffffffffffffff1673ffffffffffffffffffffffffffffffffffffffff16815260200190815260200160002081905550816004600082825461187c9190612de8565b92505081905550600073ffffffffffffffffffffffffffffffffffffffff168373ffffffffffffffffffffffffffffffffffffffff167fddf252ad1be2c89b69c2b068fc378daa952ba7f163c4a11628f55a4df523b3ef846040516118e19190612d40565b60405180910390a3505050565b6118f6610a32565b15611936576040517f08c379a000000000000000000000000000000000000000000000000000000000815260040161192d90612bc0565b60405180910390fd5b6001600760006101000a81548160ff0219169083151502179055507f62e78cea01bee320cd4e420270b5ea74000d11b0c9f74754ebdbfc544b05a25861197a610fb3565b6040516119879190612a2d565b60405180910390a1565b60006119a08360000183611e5b565b60001c905092915050565b60006119b982600001611ef5565b9050919050565b6119d96119cc836107ea565b6119d4610fb3565b610bbf565b611a18576040517f08c379a0000000000000000000000000000000000000000000000000000000008152600401611a0f90612ba0565b60405180910390fd5b611a228282611bf0565b5050565b611a308282610bbf565b611b0257600160008084815260200190815260200160002060000160008373ffffffffffffffffffffffffffffffffffffffff1673ffffffffffffffffffffffffffffffffffffffff16815260200190815260200160002060006101000a81548160ff021916908315150217905550611aa7610fb3565b73ffffffffffffffffffffffffffffffffffffffff168173ffffffffffffffffffffffffffffffffffffffff16837f2f8788117e7eff1d82e926ec794901d17c78024a50270940304540a733656f0d60405160405180910390a45b5050565b6000611b128383611f06565b611b6b578260000182908060018154018082558091505060019003906000526020600020016000909190919091505582600001805490508360010160008481526020019081526020016000208190555060019050611b70565b600090505b92915050565b60007f01ffc9a7000000000000000000000000000000000000000000000000000000007bffffffffffffffffffffffffffffffffffffffffffffffffffffffff1916827bffffffffffffffffffffffffffffffffffffffffffffffffffffffff1916149050919050565b611beb838383611f29565b505050565b611bfa8282610bbf565b15611ccd57600080600084815260200190815260200160002060000160008373ffffffffffffffffffffffffffffffffffffffff1673ffffffffffffffffffffffffffffffffffffffff16815260200190815260200160002060006101000a81548160ff021916908315150217905550611c72610fb3565b73ffffffffffffffffffffffffffffffffffffffff168173ffffffffffffffffffffffffffffffffffffffff16837ff6391f5c32d9c69d2a47ea670b442974b53935d1edc7fd64eb21e047a839171b60405160405180910390a45b5050565b60008083600101600084815260200190815260200160002054905060008114611e4f576000600182611d039190612de8565b9050600060018660000180549050611d1b9190612de8565b90506000866000018281548110611d5b577f4e487b7100000000000000000000000000000000000000000000000000000000600052603260045260246000fd5b9060005260206000200154905080876000018481548110611da5577f4e487b7100000000000000000000000000000000000000000000000000000000600052603260045260246000fd5b9060005260206000200181905550600183611dc09190612d92565b8760010160008381526020019081526020016000208190555086600001805480611e13577f4e487b7100000000000000000000000000000000000000000000000000000000600052603160045260246000fd5b60019003818190600052602060002001600090559055866001016000878152602001908152602001600020600090556001945050505050611e55565b60009150505b92915050565b600081836000018054905011611ea6576040517f08c379a0000000000000000000000000000000000000000000000000000000008152600401611e9d90612aa0565b60405180910390fd5b826000018281548110611ee2577f4e487b7100000000000000000000000000000000000000000000000000000000600052603260045260246000fd5b9060005260206000200154905092915050565b600081600001805490509050919050565b600080836001016000848152602001908152602001600020541415905092915050565b611f34838383611f81565b611f3c610a32565b15611f7c576040517f08c379a0000000000000000000000000000000000000000000000000000000008152600401611f7390612d20565b60405180910390fd5b505050565b505050565b600081359050611f9581612f7b565b92915050565b600081359050611faa81612f92565b92915050565b600081359050611fbf81612fa9565b92915050565b600081359050611fd481612fc0565b92915050565b600060208284031215611fec57600080fd5b6000611ffa84828501611f86565b91505092915050565b6000806040838503121561201657600080fd5b600061202485828601611f86565b925050602061203585828601611f86565b9150509250929050565b60008060006060848603121561205457600080fd5b600061206286828701611f86565b935050602061207386828701611f86565b925050604061208486828701611fc5565b9150509250925092565b600080604083850312156120a157600080fd5b60006120af85828601611f86565b92505060206120c085828601611fc5565b9150509250929050565b6000602082840312156120dc57600080fd5b60006120ea84828501611f9b565b91505092915050565b6000806040838503121561210657600080fd5b600061211485828601611f9b565b925050602061212585828601611f86565b9150509250929050565b6000806040838503121561214257600080fd5b600061215085828601611f9b565b925050602061216185828601611fc5565b9150509250929050565b60006020828403121561217d57600080fd5b600061218b84828501611fb0565b91505092915050565b6000602082840312156121a657600080fd5b60006121b484828501611fc5565b91505092915050565b6121c681612e1c565b82525050565b6121d581612e2e565b82525050565b6121e481612e3a565b82525050565b60006121f582612d76565b6121ff8185612d81565b935061220f818560208601612ea7565b61221881612f6a565b840191505092915050565b6000612230602283612d81565b91507f456e756d657261626c655365743a20696e646578206f7574206f6620626f756e60008301527f64730000000000000000000000000000000000000000000000000000000000006020830152604082019050919050565b6000612296602383612d81565b91507f45524332303a207472616e7366657220746f20746865207a65726f206164647260008301527f65737300000000000000000000000000000000000000000000000000000000006020830152604082019050919050565b60006122fc602f83612d81565b91507f416363657373436f6e74726f6c3a2073656e646572206d75737420626520616e60008301527f2061646d696e20746f206772616e7400000000000000000000000000000000006020830152604082019050919050565b6000612362601483612d81565b91507f5061757361626c653a206e6f74207061757365640000000000000000000000006000830152602082019050919050565b60006123a2602283612d81565b91507f45524332303a206275726e20616d6f756e7420657863656564732062616c616e60008301527f63650000000000000000000000000000000000000000000000000000000000006020830152604082019050919050565b6000612408603983612d81565b91507f45524332305072657365744d696e7465725061757365723a206d75737420686160008301527f76652070617573657220726f6c6520746f20756e7061757365000000000000006020830152604082019050919050565b600061246e602283612d81565b91507f45524332303a20617070726f766520746f20746865207a65726f20616464726560008301527f73730000000000000000000000000000000000000000000000000000000000006020830152604082019050919050565b60006124d4602683612d81565b91507f45524332303a207472616e7366657220616d6f756e742065786365656473206260008301527f616c616e636500000000000000000000000000000000000000000000000000006020830152604082019050919050565b600061253a603083612d81565b91507f416363657373436f6e74726f6c3a2073656e646572206d75737420626520616e60008301527f2061646d696e20746f207265766f6b65000000000000000000000000000000006020830152604082019050919050565b60006125a0601083612d81565b91507f5061757361626c653a20706175736564000000000000000000000000000000006000830152602082019050919050565b60006125e0602883612d81565b91507f45524332303a207472616e7366657220616d6f756e742065786365656473206160008301527f6c6c6f77616e63650000000000000000000000000000000000000000000000006020830152604082019050919050565b6000612646603683612d81565b91507f45524332305072657365744d696e7465725061757365723a206d75737420686160008301527f7665206d696e74657220726f6c6520746f206d696e74000000000000000000006020830152604082019050919050565b60006126ac602483612d81565b91507f45524332303a206275726e20616d6f756e74206578636565647320616c6c6f7760008301527f616e6365000000000000000000000000000000000000000000000000000000006020830152604082019050919050565b6000612712602183612d81565b91507f45524332303a206275726e2066726f6d20746865207a65726f2061646472657360008301527f73000000000000000000000000000000000000000000000000000000000000006020830152604082019050919050565b6000612778602583612d81565b91507f45524332303a207472616e736665722066726f6d20746865207a65726f20616460008301527f64726573730000000000000000000000000000000000000000000000000000006020830152604082019050919050565b60006127de602483612d81565b91507f45524332303a20617070726f76652066726f6d20746865207a65726f2061646460008301527f72657373000000000000000000000000000000000000000000000000000000006020830152604082019050919050565b6000612844603783612d81565b91507f45524332305072657365744d696e7465725061757365723a206d75737420686160008301527f76652070617573657220726f6c6520746f2070617573650000000000000000006020830152604082019050919050565b60006128aa602583612d81565b91507f45524332303a2064656372656173656420616c6c6f77616e63652062656c6f7760008301527f207a65726f0000000000000000000000000000000000000000000000000000006020830152604082019050919050565b6000612910602f83612d81565b91507f416363657373436f6e74726f6c3a2063616e206f6e6c792072656e6f756e636560008301527f20726f6c657320666f722073656c6600000000000000000000000000000000006020830152604082019050919050565b6000612976601f83612d81565b91507f45524332303a206d696e7420746f20746865207a65726f2061646472657373006000830152602082019050919050565b60006129b6602a83612d81565b91507f45524332305061757361626c653a20746f6b656e207472616e7366657220776860008301527f696c6520706175736564000000000000000000000000000000000000000000006020830152604082019050919050565b612a1881612e90565b82525050565b612a2781612e9a565b82525050565b6000602082019050612a4260008301846121bd565b92915050565b6000602082019050612a5d60008301846121cc565b92915050565b6000602082019050612a7860008301846121db565b92915050565b60006020820190508181036000830152612a9881846121ea565b905092915050565b60006020820190508181036000830152612ab981612223565b9050919050565b60006020820190508181036000830152612ad981612289565b9050919050565b60006020820190508181036000830152612af9816122ef565b9050919050565b60006020820190508181036000830152612b1981612355565b9050919050565b60006020820190508181036000830152612b3981612395565b9050919050565b60006020820190508181036000830152612b59816123fb565b9050919050565b60006020820190508181036000830152612b7981612461565b9050919050565b60006020820190508181036000830152612b99816124c7565b9050919050565b60006020820190508181036000830152612bb98161252d565b9050919050565b60006020820190508181036000830152612bd981612593565b9050919050565b60006020820190508181036000830152612bf9816125d3565b9050919050565b60006020820190508181036000830152612c1981612639565b9050919050565b60006020820190508181036000830152612c398161269f565b9050919050565b60006020820190508181036000830152612c5981612705565b9050919050565b60006020820190508181036000830152612c798161276b565b9050919050565b60006020820190508181036000830152612c99816127d1565b9050919050565b60006020820190508181036000830152612cb981612837565b9050919050565b60006020820190508181036000830152612cd98161289d565b9050919050565b60006020820190508181036000830152612cf981612903565b9050919050565b60006020820190508181036000830152612d1981612969565b9050919050565b60006020820190508181036000830152612d39816129a9565b9050919050565b6000602082019050612d556000830184612a0f565b92915050565b6000602082019050612d706000830184612a1e565b92915050565b600081519050919050565b600082825260208201905092915050565b6000612d9d82612e90565b9150612da883612e90565b9250827fffffffffffffffffffffffffffffffffffffffffffffffffffffffffffffffff03821115612ddd57612ddc612f0c565b5b828201905092915050565b6000612df382612e90565b9150612dfe83612e90565b925082821015612e1157612e10612f0c565b5b828203905092915050565b6000612e2782612e70565b9050919050565b60008115159050919050565b6000819050919050565b60007fffffffff0000000000000000000000000000000000000000000000000000000082169050919050565b600073ffffffffffffffffffffffffffffffffffffffff82169050919050565b6000819050919050565b600060ff82169050919050565b60005b83811015612ec5578082015181840152602081019050612eaa565b83811115612ed4576000848401525b50505050565b60006002820490506001821680612ef257607f821691505b60208210811415612f0657612f05612f3b565b5b50919050565b7f4e487b7100000000000000000000000000000000000000000000000000000000600052601160045260246000fd5b7f4e487b7100000000000000000000000000000000000000000000000000000000600052602260045260246000fd5b6000601f19601f8301169050919050565b612f8481612e1c565b8114612f8f57600080fd5b50565b612f9b81612e3a565b8114612fa657600080fd5b50565b612fb281612e44565b8114612fbd57600080fd5b50565b612fc981612e90565b8114612fd457600080fd5b5056fea2646970667358221220de1405fae7cf07562a62adaeefe7e45ba0127c8af2695d41ba97566af4f582ac64736f6c6343000800003354686520616464726573732025732069732072657175657374696e67206a6f696ea2646970667358221220cd583def9b9025f9dc873c4f6308e16b1d80be5236ab729e7b2ebaa0b232a55a64736f6c63430008000033",
  "devdoc": {
    "kind": "dev",
    "methods": {
      "owner()": {
        "details": "Returns the address of the current owner."
      },
      "renounceOwnership()": {
        "details": "Leaves the contract without owner. It will not be possible to call `onlyOwner` functions anymore. Can only be called by the current owner. NOTE: Renouncing ownership will leave the contract without an owner, thereby removing any functionality that is only available to the owner."
      },
      "transferOwnership(address)": {
        "details": "Transfers ownership of the contract to a new account (`newOwner`). Can only be called by the current owner."
      }
    },
    "version": 1
  },
  "userdoc": {
    "kind": "user",
    "methods": {},
    "version": 1
  },
  "storageLayout": {
    "storage": [
      {
        "astId": 137,
        "contract": "contracts/HappyDao.sol:HappyDao",
        "label": "_initialized",
        "offset": 0,
        "slot": "0",
        "type": "t_bool"
      },
      {
        "astId": 140,
        "contract": "contracts/HappyDao.sol:HappyDao",
        "label": "_initializing",
        "offset": 1,
        "slot": "0",
        "type": "t_bool"
      },
      {
        "astId": 465,
        "contract": "contracts/HappyDao.sol:HappyDao",
        "label": "__gap",
        "offset": 0,
        "slot": "1",
        "type": "t_array(t_uint256)50_storage"
      },
      {
        "astId": 10,
        "contract": "contracts/HappyDao.sol:HappyDao",
        "label": "_owner",
        "offset": 0,
        "slot": "51",
        "type": "t_address"
      },
      {
        "astId": 129,
        "contract": "contracts/HappyDao.sol:HappyDao",
        "label": "__gap",
        "offset": 0,
        "slot": "52",
        "type": "t_array(t_uint256)49_storage"
      },
      {
        "astId": 2471,
        "contract": "contracts/HappyDao.sol:HappyDao",
        "label": "happyToken",
        "offset": 0,
        "slot": "101",
        "type": "t_contract(HappyToken)2915"
      },
      {
        "astId": 2473,
        "contract": "contracts/HappyDao.sol:HappyDao",
        "label": "tokenPrice",
        "offset": 0,
        "slot": "102",
        "type": "t_uint256"
      },
      {
        "astId": 2475,
        "contract": "contracts/HappyDao.sol:HappyDao",
        "label": "minTokensToJoin",
        "offset": 0,
        "slot": "103",
        "type": "t_uint256"
      },
      {
        "astId": 2501,
        "contract": "contracts/HappyDao.sol:HappyDao",
        "label": "proposalList",
        "offset": 0,
        "slot": "104",
        "type": "t_array(t_struct(Proposal)2497_storage)dyn_storage"
      }
    ],
    "types": {
      "t_address": {
        "encoding": "inplace",
        "label": "address",
        "numberOfBytes": "20"
      },
      "t_address_payable": {
        "encoding": "inplace",
        "label": "address payable",
        "numberOfBytes": "20"
      },
      "t_array(t_struct(Proposal)2497_storage)dyn_storage": {
        "base": "t_struct(Proposal)2497_storage",
        "encoding": "dynamic_array",
        "label": "struct HappyDao.Proposal[]",
        "numberOfBytes": "32"
      },
      "t_array(t_uint256)49_storage": {
        "base": "t_uint256",
        "encoding": "inplace",
        "label": "uint256[49]",
        "numberOfBytes": "1568"
      },
      "t_array(t_uint256)50_storage": {
        "base": "t_uint256",
        "encoding": "inplace",
        "label": "uint256[50]",
        "numberOfBytes": "1600"
      },
      "t_bool": {
        "encoding": "inplace",
        "label": "bool",
        "numberOfBytes": "1"
      },
      "t_contract(HappyToken)2915": {
        "encoding": "inplace",
        "label": "contract HappyToken",
        "numberOfBytes": "20"
      },
      "t_enum(Vote)2479": {
        "encoding": "inplace",
        "label": "enum HappyDao.Vote",
        "numberOfBytes": "1"
      },
      "t_mapping(t_address,t_enum(Vote)2479)": {
        "encoding": "mapping",
        "key": "t_address",
        "label": "mapping(address => enum HappyDao.Vote)",
        "numberOfBytes": "32",
        "value": "t_enum(Vote)2479"
      },
      "t_struct(Proposal)2497_storage": {
        "encoding": "inplace",
        "label": "struct HappyDao.Proposal",
        "members": [
          {
            "astId": 2481,
            "contract": "contracts/HappyDao.sol:HappyDao",
            "label": "proposer",
            "offset": 0,
            "slot": "0",
            "type": "t_address"
          },
          {
            "astId": 2483,
            "contract": "contracts/HappyDao.sol:HappyDao",
            "label": "applicant",
            "offset": 0,
            "slot": "1",
            "type": "t_address_payable"
          },
          {
            "astId": 2485,
            "contract": "contracts/HappyDao.sol:HappyDao",
            "label": "amount",
            "offset": 0,
            "slot": "2",
            "type": "t_uint256"
          },
          {
            "astId": 2487,
            "contract": "contracts/HappyDao.sol:HappyDao",
            "label": "yesVotes",
            "offset": 0,
            "slot": "3",
            "type": "t_uint256"
          },
          {
            "astId": 2489,
            "contract": "contracts/HappyDao.sol:HappyDao",
            "label": "noVotes",
            "offset": 0,
            "slot": "4",
            "type": "t_uint256"
          },
          {
            "astId": 2494,
            "contract": "contracts/HappyDao.sol:HappyDao",
            "label": "votes",
            "offset": 0,
            "slot": "5",
            "type": "t_mapping(t_address,t_enum(Vote)2479)"
          },
          {
            "astId": 2496,
            "contract": "contracts/HappyDao.sol:HappyDao",
            "label": "submissionTime",
            "offset": 0,
            "slot": "6",
            "type": "t_uint256"
          }
        ],
        "numberOfBytes": "224"
      },
      "t_uint256": {
        "encoding": "inplace",
        "label": "uint256",
        "numberOfBytes": "32"
      }
    }
  }
}