{
  "address": "0x8DfB71f2A75acEB9eaF8898Cd49Ea9e692A5a4b1",
  "abi": [
    {
      "anonymous": false,
      "inputs": [
        {
          "indexed": true,
          "internalType": "address",
          "name": "previousOwner",
          "type": "address"
        },
        {
          "indexed": true,
          "internalType": "address",
          "name": "newOwner",
          "type": "address"
        }
      ],
      "name": "OwnershipTransferred",
      "type": "event"
    },
    {
      "inputs": [
        {
          "internalType": "address",
          "name": "account",
          "type": "address"
        }
      ],
      "name": "balanceOf",
      "outputs": [
        {
          "internalType": "uint256",
          "name": "",
          "type": "uint256"
        }
      ],
      "stateMutability": "view",
      "type": "function"
    },
    {
      "inputs": [
        {
          "internalType": "string",
          "name": "_name",
          "type": "string"
        },
        {
          "internalType": "string",
          "name": "_symbol",
          "type": "string"
        },
        {
          "internalType": "uint256",
          "name": "_totalSupply",
          "type": "uint256"
        }
      ],
      "name": "initialize",
      "outputs": [],
      "stateMutability": "nonpayable",
      "type": "function"
    },
    {
      "inputs": [],
      "name": "name",
      "outputs": [
        {
          "internalType": "string",
          "name": "",
          "type": "string"
        }
      ],
      "stateMutability": "view",
      "type": "function"
    },
    {
      "inputs": [],
      "name": "owner",
      "outputs": [
        {
          "internalType": "address",
          "name": "",
          "type": "address"
        }
      ],
      "stateMutability": "view",
      "type": "function"
    },
    {
      "inputs": [],
      "name": "renounceOwnership",
      "outputs": [],
      "stateMutability": "nonpayable",
      "type": "function"
    },
    {
      "inputs": [],
      "name": "symbol",
      "outputs": [
        {
          "internalType": "string",
          "name": "",
          "type": "string"
        }
      ],
      "stateMutability": "view",
      "type": "function"
    },
    {
      "inputs": [],
      "name": "totalSupply",
      "outputs": [
        {
          "internalType": "uint256",
          "name": "",
          "type": "uint256"
        }
      ],
      "stateMutability": "view",
      "type": "function"
    },
    {
      "inputs": [
        {
          "internalType": "address",
          "name": "to",
          "type": "address"
        },
        {
          "internalType": "uint256",
          "name": "amount",
          "type": "uint256"
        }
      ],
      "name": "transfer",
      "outputs": [],
      "stateMutability": "nonpayable",
      "type": "function"
    },
    {
      "inputs": [
        {
          "internalType": "address",
          "name": "newOwner",
          "type": "address"
        }
      ],
      "name": "transferOwnership",
      "outputs": [],
      "stateMutability": "nonpayable",
      "type": "function"
    },
    {
      "inputs": [
        {
          "internalType": "uint256",
          "name": "newSupply",
          "type": "uint256"
        }
      ],
      "name": "updateSupplyBalance",
      "outputs": [],
      "stateMutability": "nonpayable",
      "type": "function"
    }
  ],
  "solcInputHash": "a94e1b26e5d5b2a2225cef78a18b448d",
  "bytecode": "0x608060405234801561001057600080fd5b5061139d806100206000396000f3fe608060405234801561001057600080fd5b506004361061009e5760003560e01c80638da5cb5b116100665780638da5cb5b1461013557806395d89b4114610153578063a9059cbb14610171578063b119490e1461018d578063f2fde38b146101a95761009e565b806306fdde03146100a357806318160ddd146100c15780634edbaa8f146100df57806370a08231146100fb578063715018a61461012b575b600080fd5b6100ab6101c5565b6040516100b89190610fb9565b60405180910390f35b6100c9610253565b6040516100d691906110c9565b60405180910390f35b6100f960048036038101906100f49190610dd2565b610259565b005b61011560048036038101906101109190610cee565b61031c565b60405161012291906110c9565b60405180910390f35b610133610365565b005b61013d6104a2565b60405161014a9190610f9e565b60405180910390f35b61015b6104cc565b6040516101689190610fb9565b60405180910390f35b61018b60048036038101906101869190610d17565b61055a565b005b6101a760048036038101906101a29190610d53565b61074a565b005b6101c360048036038101906101be9190610cee565b6108a1565b005b606580546101d290611269565b80601f01602080910402602001604051908101604052809291908181526020018280546101fe90611269565b801561024b5780601f106102205761010080835404028352916020019161024b565b820191906000526020600020905b81548152906001019060200180831161022e57829003601f168201915b505050505081565b60675481565b610261610a4d565b73ffffffffffffffffffffffffffffffffffffffff1661027f6104a2565b73ffffffffffffffffffffffffffffffffffffffff16146102d5576040517f08c379a00000000000000000000000000000000000000000000000000000000081526004016102cc90611089565b60405180910390fd5b80606860003373ffffffffffffffffffffffffffffffffffffffff1673ffffffffffffffffffffffffffffffffffffffff1681526020019081526020016000208190555050565b6000606860008373ffffffffffffffffffffffffffffffffffffffff1673ffffffffffffffffffffffffffffffffffffffff168152602001908152602001600020549050919050565b61036d610a4d565b73ffffffffffffffffffffffffffffffffffffffff1661038b6104a2565b73ffffffffffffffffffffffffffffffffffffffff16146103e1576040517f08c379a00000000000000000000000000000000000000000000000000000000081526004016103d890611089565b60405180910390fd5b600073ffffffffffffffffffffffffffffffffffffffff16603360009054906101000a900473ffffffffffffffffffffffffffffffffffffffff1673ffffffffffffffffffffffffffffffffffffffff167f8be0079c531659141344cd1fd0a4f28419497f9722a3daafe3b4186f6b6457e060405160405180910390a36000603360006101000a81548173ffffffffffffffffffffffffffffffffffffffff021916908373ffffffffffffffffffffffffffffffffffffffff160217905550565b6000603360009054906101000a900473ffffffffffffffffffffffffffffffffffffffff16905090565b606680546104d990611269565b80601f016020809104026020016040519081016040528092919081815260200182805461050590611269565b80156105525780601f1061052757610100808354040283529160200191610552565b820191906000526020600020905b81548152906001019060200180831161053557829003601f168201915b505050505081565b6105d86040518060400160405280601b81526020017f53656e6465722062616c616e636520697320257320546f6b656e730000000000815250606860003373ffffffffffffffffffffffffffffffffffffffff1673ffffffffffffffffffffffffffffffffffffffff16815260200190815260200160002054610a55565b6106186040518060400160405280601e81526020017f547279696e6720746f2073656e6420257320546f6b656e7320746f20257300008152508284610af1565b80606860003373ffffffffffffffffffffffffffffffffffffffff1673ffffffffffffffffffffffffffffffffffffffff16815260200190815260200160002054101561069a576040517f08c379a0000000000000000000000000000000000000000000000000000000008152600401610691906110a9565b60405180910390fd5b80606860003373ffffffffffffffffffffffffffffffffffffffff1673ffffffffffffffffffffffffffffffffffffffff16815260200190815260200160002060008282546106e991906111b7565b9250508190555080606860008473ffffffffffffffffffffffffffffffffffffffff1673ffffffffffffffffffffffffffffffffffffffff168152602001908152602001600020600082825461073f9190611161565b925050819055505050565b600060019054906101000a900460ff1680610770575060008054906101000a900460ff16155b6107af576040517f08c379a00000000000000000000000000000000000000000000000000000000081526004016107a690611069565b60405180910390fd5b60008060019054906101000a900460ff1615905080156107ff576001600060016101000a81548160ff02191690831515021790555060016000806101000a81548160ff0219169083151502179055505b8360659080519060200190610815929190610bb9565b50826066908051906020019061082c929190610bb9565b5081606781905550606754606860003373ffffffffffffffffffffffffffffffffffffffff1673ffffffffffffffffffffffffffffffffffffffff16815260200190815260200160002081905550801561089b5760008060016101000a81548160ff0219169083151502179055505b50505050565b6108a9610a4d565b73ffffffffffffffffffffffffffffffffffffffff166108c76104a2565b73ffffffffffffffffffffffffffffffffffffffff161461091d576040517f08c379a000000000000000000000000000000000000000000000000000000000815260040161091490611089565b60405180910390fd5b600073ffffffffffffffffffffffffffffffffffffffff168173ffffffffffffffffffffffffffffffffffffffff16141561098d576040517f08c379a000000000000000000000000000000000000000000000000000000000815260040161098490611049565b60405180910390fd5b8073ffffffffffffffffffffffffffffffffffffffff16603360009054906101000a900473ffffffffffffffffffffffffffffffffffffffff1673ffffffffffffffffffffffffffffffffffffffff167f8be0079c531659141344cd1fd0a4f28419497f9722a3daafe3b4186f6b6457e060405160405180910390a380603360006101000a81548173ffffffffffffffffffffffffffffffffffffffff021916908373ffffffffffffffffffffffffffffffffffffffff16021790555050565b600033905090565b610aed8282604051602401610a6b929190610fdb565b6040516020818303038152906040527f9710a9d0000000000000000000000000000000000000000000000000000000007bffffffffffffffffffffffffffffffffffffffffffffffffffffffff19166020820180517bffffffffffffffffffffffffffffffffffffffffffffffffffffffff8381831617835250505050610b90565b5050565b610b8b838383604051602401610b099392919061100b565b6040516020818303038152906040527fe3849f79000000000000000000000000000000000000000000000000000000007bffffffffffffffffffffffffffffffffffffffffffffffffffffffff19166020820180517bffffffffffffffffffffffffffffffffffffffffffffffffffffffff8381831617835250505050610b90565b505050565b60008151905060006a636f6e736f6c652e6c6f679050602083016000808483855afa5050505050565b828054610bc590611269565b90600052602060002090601f016020900481019282610be75760008555610c2e565b82601f10610c0057805160ff1916838001178555610c2e565b82800160010185558215610c2e579182015b82811115610c2d578251825591602001919060010190610c12565b5b509050610c3b9190610c3f565b5090565b5b80821115610c58576000816000905550600101610c40565b5090565b6000610c6f610c6a84611115565b6110e4565b905082815260208101848484011115610c8757600080fd5b610c92848285611227565b509392505050565b600081359050610ca981611339565b92915050565b600082601f830112610cc057600080fd5b8135610cd0848260208601610c5c565b91505092915050565b600081359050610ce881611350565b92915050565b600060208284031215610d0057600080fd5b6000610d0e84828501610c9a565b91505092915050565b60008060408385031215610d2a57600080fd5b6000610d3885828601610c9a565b9250506020610d4985828601610cd9565b9150509250929050565b600080600060608486031215610d6857600080fd5b600084013567ffffffffffffffff811115610d8257600080fd5b610d8e86828701610caf565b935050602084013567ffffffffffffffff811115610dab57600080fd5b610db786828701610caf565b9250506040610dc886828701610cd9565b9150509250925092565b600060208284031215610de457600080fd5b6000610df284828501610cd9565b91505092915050565b610e04816111eb565b82525050565b6000610e1582611145565b610e1f8185611150565b9350610e2f818560208601611236565b610e3881611328565b840191505092915050565b6000610e50602683611150565b91507f4f776e61626c653a206e6577206f776e657220697320746865207a65726f206160008301527f64647265737300000000000000000000000000000000000000000000000000006020830152604082019050919050565b6000610eb6602e83611150565b91507f496e697469616c697a61626c653a20636f6e747261637420697320616c72656160008301527f647920696e697469616c697a65640000000000000000000000000000000000006020830152604082019050919050565b6000610f1c602083611150565b91507f4f776e61626c653a2063616c6c6572206973206e6f7420746865206f776e65726000830152602082019050919050565b6000610f5c601183611150565b91507f4e6f7420656e6f75676820746f6b656e730000000000000000000000000000006000830152602082019050919050565b610f988161121d565b82525050565b6000602082019050610fb36000830184610dfb565b92915050565b60006020820190508181036000830152610fd38184610e0a565b905092915050565b60006040820190508181036000830152610ff58185610e0a565b90506110046020830184610f8f565b9392505050565b600060608201905081810360008301526110258186610e0a565b90506110346020830185610f8f565b6110416040830184610dfb565b949350505050565b6000602082019050818103600083015261106281610e43565b9050919050565b6000602082019050818103600083015261108281610ea9565b9050919050565b600060208201905081810360008301526110a281610f0f565b9050919050565b600060208201905081810360008301526110c281610f4f565b9050919050565b60006020820190506110de6000830184610f8f565b92915050565b6000604051905081810181811067ffffffffffffffff8211171561110b5761110a6112f9565b5b8060405250919050565b600067ffffffffffffffff8211156111305761112f6112f9565b5b601f19601f8301169050602081019050919050565b600081519050919050565b600082825260208201905092915050565b600061116c8261121d565b91506111778361121d565b9250827fffffffffffffffffffffffffffffffffffffffffffffffffffffffffffffffff038211156111ac576111ab61129b565b5b828201905092915050565b60006111c28261121d565b91506111cd8361121d565b9250828210156111e0576111df61129b565b5b828203905092915050565b60006111f6826111fd565b9050919050565b600073ffffffffffffffffffffffffffffffffffffffff82169050919050565b6000819050919050565b82818337600083830152505050565b60005b83811015611254578082015181840152602081019050611239565b83811115611263576000848401525b50505050565b6000600282049050600182168061128157607f821691505b60208210811415611295576112946112ca565b5b50919050565b7f4e487b7100000000000000000000000000000000000000000000000000000000600052601160045260246000fd5b7f4e487b7100000000000000000000000000000000000000000000000000000000600052602260045260246000fd5b7f4e487b7100000000000000000000000000000000000000000000000000000000600052604160045260246000fd5b6000601f19601f8301169050919050565b611342816111eb565b811461134d57600080fd5b50565b6113598161121d565b811461136457600080fd5b5056fea2646970667358221220b7e52bf7f04b68de5d00d2cfcc602288a8dce3d3ed48e1b5c0d118ecf12b693e64736f6c63430008000033",
  "devdoc": {
    "kind": "dev",
    "methods": {
      "owner()": {
        "details": "Returns the address of the current owner."
      },
      "renounceOwnership()": {
        "details": "Leaves the contract without owner. It will not be possible to call `onlyOwner` functions anymore. Can only be called by the current owner. NOTE: Renouncing ownership will leave the contract without an owner, thereby removing any functionality that is only available to the owner."
      },
      "transferOwnership(address)": {
        "details": "Transfers ownership of the contract to a new account (`newOwner`). Can only be called by the current owner."
      }
    },
    "version": 1
  },
  "userdoc": {
    "kind": "user",
    "methods": {},
    "version": 1
  },
  "storageLayout": {
    "storage": [
      {
        "astId": 137,
        "contract": "contracts/Token.sol:Token",
        "label": "_initialized",
        "offset": 0,
        "slot": "0",
        "type": "t_bool"
      },
      {
        "astId": 140,
        "contract": "contracts/Token.sol:Token",
        "label": "_initializing",
        "offset": 1,
        "slot": "0",
        "type": "t_bool"
      },
      {
        "astId": 465,
        "contract": "contracts/Token.sol:Token",
        "label": "__gap",
        "offset": 0,
        "slot": "1",
        "type": "t_array(t_uint256)50_storage"
      },
      {
        "astId": 10,
        "contract": "contracts/Token.sol:Token",
        "label": "_owner",
        "offset": 0,
        "slot": "51",
        "type": "t_address"
      },
      {
        "astId": 129,
        "contract": "contracts/Token.sol:Token",
        "label": "__gap",
        "offset": 0,
        "slot": "52",
        "type": "t_array(t_uint256)49_storage"
      },
      {
        "astId": 477,
        "contract": "contracts/Token.sol:Token",
        "label": "name",
        "offset": 0,
        "slot": "101",
        "type": "t_string_storage"
      },
      {
        "astId": 479,
        "contract": "contracts/Token.sol:Token",
        "label": "symbol",
        "offset": 0,
        "slot": "102",
        "type": "t_string_storage"
      },
      {
        "astId": 481,
        "contract": "contracts/Token.sol:Token",
        "label": "totalSupply",
        "offset": 0,
        "slot": "103",
        "type": "t_uint256"
      },
      {
        "astId": 485,
        "contract": "contracts/Token.sol:Token",
        "label": "balances",
        "offset": 0,
        "slot": "104",
        "type": "t_mapping(t_address,t_uint256)"
      }
    ],
    "types": {
      "t_address": {
        "encoding": "inplace",
        "label": "address",
        "numberOfBytes": "20"
      },
      "t_array(t_uint256)49_storage": {
        "base": "t_uint256",
        "encoding": "inplace",
        "label": "uint256[49]",
        "numberOfBytes": "1568"
      },
      "t_array(t_uint256)50_storage": {
        "base": "t_uint256",
        "encoding": "inplace",
        "label": "uint256[50]",
        "numberOfBytes": "1600"
      },
      "t_bool": {
        "encoding": "inplace",
        "label": "bool",
        "numberOfBytes": "1"
      },
      "t_mapping(t_address,t_uint256)": {
        "encoding": "mapping",
        "key": "t_address",
        "label": "mapping(address => uint256)",
        "numberOfBytes": "32",
        "value": "t_uint256"
      },
      "t_string_storage": {
        "encoding": "bytes",
        "label": "string",
        "numberOfBytes": "32"
      },
      "t_uint256": {
        "encoding": "inplace",
        "label": "uint256",
        "numberOfBytes": "32"
      }
    }
  }
}